:020000040800F2
:10000000200400204501000853100008670E000876
:1000100051100008670500083511000800000000B5
:100020000000000000000000000000007710000841
:10003000690500080000000075100008791000082C
:100040005F0100085F0100085F0100085F01000810
:100050005F0100085F0100085F0100085F01000800
:100060005F0100085F0100085F0100085F010008F0
:100070005F0100085F0100085F0100085F010008E0
:100080005F0100085F0100085F0100085F010008D0
:100090005F0100085F0100085F0100085F010008C0
:1000A0005F0100085F0100085F0100085F010008B0
:1000B0005F0100085F0100085F0100085F010008A0
:1000C0005F0100085F0100085F0100085F01000890
:1000D0005F0100085F0100085F0100085F01000880
:1000E0005F0100085F0100085F0100085F01000870
:1000F0005F0100085F0100085F0100085F01000860
:100100005F0100085F0100085F0100085F0100084F
:100110005F0100085F0100085F0100085F0100083F
:100120005F0100085F0100085F0100085F0100082F
:10013000DFF80CD000F0F6F9004800475511000830
:10014000200400200648804706480047FEE7FEE7F7
:10015000FEE7FEE7FEE7FEE7FEE7FEE7FEE7FEE777
:10016000ED10000831010008202A04DB203A21FAB2
:1001700002F00021704721FA02F3D040C2F12002C0
:100180009140084319467047F0B480EA0102D40F49
:100190004200B2EB410F02D20246084611464A0025
:1001A00042D0C30DDDB2C1F3C752AD1A202D35DAEE
:1001B000C1F3160141F4000204B15242C5F1200618
:1001C00002FA06F12A411044B3EBD05F23D0C4B148
:1001D000012DA0EBC35009DCF0BC4FF0004202EA55
:1001E000C352DBB200F5000000F010B9400000F18E
:1001F000807000EBC350A0F1807040EAD1704900DC
:1002000009E0490841EAC071A0EBC35000F50000C5
:10021000400800EBC350F0BC00F0EFB8614201228F
:1002200002EB4101001BF6E7F0BC704781F0004192
:10023000AAE780F00040A7E780EA010210B502F0CB
:100240000043400022D04A001FD0010E01EB126192
:10025000C0F35600C2F3560240F4000042F400021C
:10026000A0FB022000047F39140400D0401C50EA97
:10027000124001D44000491EC2B20C0604EBD0105B
:10028000401C4008802A02D003E0002010BD20F06E
:100290000100002900DA0020184310BD420005D0FB
:1002A000C0F3C7525242914201DC0020704700EB7C
:1002B000C15070472DE9F04D81EA030404F0004B72
:1002C00021F0004514464FF0000A23F0004150EAA7
:1002D000050220D054EA01021DD0C5F30A57024698
:1002E000C5F31303C1F31300C1F30A5640F480159C
:1002F00043F48013A7EB0608101BD64608F2FD381E
:1003000073EB050002D308F1010801E092185B418C
:10031000B8F1000F03DA00200146BDE8F08D00209F
:100320004FF48011064684460EE0171B73EB050759
:1003300005D3121B63EB050306434CEA010C490885
:100340004FEA300092185B4150EA0107EDD152EAC2
:10035000030012D082EA040083EA0501084305D0B5
:10036000101BAB4106D20122002306E000224FF011
:10037000004302E06FF0010253101AEB06004CEB51
:10038000085110EB0A0041EB0B01BDE8F04D00F005
:100390006BB896230022114600F038B800F00042F6
:1003A00030F000400AD0C10D01F56071C0F31600B5
:1003B00042EA0151C208400711437047002001463C
:1003C000704701F0004330B421F0004150EA0102CF
:1003D00006D00A0DA2F56072C1F31301002A02DCF7
:1003E00030BC00207047440F44EAC104C100E0184B
:1003F00030BC00EBC250AFF300800029A8BF7047AB
:10040000401C490008BF20F00100704710B4B0FA4A
:1004100080FC00FA0CF050EA010404BF10BC7047E5
:1004200049B1CCF1200421FA04F411FA0CF118BFFF
:10043000012121430843A3EB0C01CB1D4FEA0061CE
:100440004FEA102042BF002010BC704700EBC350A1
:1004500010440029A4BF10BC7047401C490008BFCD
:1004600020F0010010BC704710B5141E73F1000499
:1004700008DA401C41F1000192185B411A4301D196
:1004800020F0010010BD2DE9F04D92469B4611B1C0
:10049000B1FA81F202E0B0FA80F22032904600F028
:1004A00053F804460F4640EA0A0041EA0B0153465E
:1004B0005A46084313D0114653EA010019D0C8F137
:1004C00040025046FFF750FE05460E46504659463C
:1004D000424600F039F8084305D0012004E02046E8
:1004E0003946BDE8F08D0020054346EAE0762C430E
:1004F00037430A986305E40AA0EB08000022FD0ACE
:1005000044EA47540A3002D500200146E9E70105D4
:1005100010196941DDE9084500196941BDE8F04D50
:10052000A2E70000064C074D06E0E06840F001033A
:1005300094E8070098471034AC42F6D3FFF7FCFD6F
:10054000C4110008E4110008202A04DB203A00FA54
:1005500002F1002070479140C2F1200320FA03F31A
:10056000194390407047FEE7704701B5009801E0DD
:10057000401E00900028FBD108BD000070B5054664
:100580000146012000F070FC04462946022000F0DC
:100590006BFC4FF6FF7101EAC41101EB5000FFF74D
:1005A000F8FE0A49FFF748FE6FF00E01FFF776FEEE
:1005B0000749FFF73BFEFFF7F1FE064A064BFFF740
:1005C00079FEBDE87040FFF7FCBE00000000D74395
:1005D0000000C84269520ABABDA4D83F2DE9F84FBD
:1005E000DFF8B8A100220AF1040B144601274FF0EE
:1005F0000F090BF1040E00BF0B6807FA04F52B403E
:10060000AB4274D1DFF898C14E68A6EB0C08664582
:100610002BD00DDC032E34D005DC36B3012E19D0DF
:10062000022E2FD11BE0112E16D0122E2AD119E046
:10063000B8F5881F19D006DCB8F5803F15D0B8F59D
:10064000801F1FD111E0B8F5001F0ED0B8F5041FB0
:1006500018D10AE0CA6815E0CA68121D12E0CA681B
:1006600008320FE0CA680C320CE08A682AB1012A0D
:100670004FF0080203D0456104E0042202E0056166
:1006800000E00022FF2B01D8064601E000F104063D
:100690004FEA840501D9A5F12005D6F800C009FA72
:1006A00005F82CEA080C02FA05F54CEA050CC6F828
:1006B00000C04D68ED006AD53A4DAE6946F00106BE
:1006C000AE61AD6924F0030605F001050095364DD5
:1006D00006EB050CDCF80850A6074FEA167809FA75
:1006E00008F6B543314EB04202D100261AE04EE082
:1006F0002F4EB04201D1012614E02E4EB04201D15E
:1007000002260FE02C4EB04201D103260AE02B4E08
:10071000B04201D1042605E0294EB04201D10526A0
:1007200000E0062606FA08F62E43CCF808604D686D
:10073000DAF80060ED03554601D51E4300E09E4304
:100740002E604D68AD0305D5DBF800601E43CBF885
:10075000006004E0DBF800509D43CBF800504D688A
:10076000DEF80060ED02754601D51E4300E09E43B1
:100770002E604D68AD0205D5084D0C352E681E4320
:100780002E6004E0054E0C3635689D433560641CD0
:10079000102CFFF431AFBDE8F88F000000040140D9
:1007A000000011100010024000000140000801404C
:1007B000000C0140001001400014014000180140ED
:1007C000001C01408068084000D0012070470AB139
:1007D000016170470904FBE7014880687047000029
:1007E0000C00002002488168027811448160704743
:1007F0000C000020074810B5016841F010010160AD
:10080000032000F091F8002000F006F800F024F832
:10081000002010BD0020024070B50D4D04464FF47D
:100820007A712878B1FBF0F00A490968B1FBF0F061
:1008300000F001FB48B9102C07D200222146501EBF
:1008400000F052F800206C6070BD012070BD000007
:100850000C00002018000020214808B5816941F0F3
:1008600001018161816901F001010091C16941F0DB
:100870008051C161C06900F080500090032000F0F9
:1008800053F8002211466FF00B0000F02DF8002203
:1008900011466FF00A0000F027F8002211466FF0B1
:1008A000090000F021F800221146501F00F01CF84A
:1008B00000221146101F00F017F800221146901E6A
:1008C00000F012F800221146501E00F00DF8054805
:1008D000416821F0E06141F00071416008BD000015
:1008E0000010024000000140F0B40E4B1B680C46A3
:1008F000C3F30223C3F10705042D00D90425191DF4
:10090000072901D2002300E0DB1E012606FA05F1CB
:10091000491E214099409E40761E16403143F0BC4E
:1009200000F098BB0CED00E0064900F007020868F3
:100930004FF6FF03184040EA0220034A10430860C4
:10094000704700000CED00E00000FA052DE9F047CB
:10095000DFF83C8105460E46D8F8000000F007009D
:10096000B0420CD2D8F8001021F007013143C8F88A
:100970000010D8F8000000F00700B04263D12878DA
:10098000444C800705D56068A96820F0F000084352
:1009900060602878C00745D06868012816D02168B3
:1009A000022816D0890700294DDA616821F0030179
:1009B00001436160FFF710FF6968074641F2883024
:1009C00001290FD00229814619D027E02168890327
:1009D000E9E78901E7E700BFFFF7FEFEC11B4945D4
:1009E00001D918E081466068C0F381000128F3D185
:1009F00018E000BFFFF7F0FEC11B49450BD8606847
:100A0000C0F381000228F5D10CE000BFFFF7E4FE3F
:100A1000C11B494502D90320BDE8F087606810F08A
:100A20000C0FF3D1D8F80010404601F00701B14295
:100A30000BD9016821F0070131430160006800F023
:100A40000700B04201D00120E6E72878400705D52D
:100A50006068E96820F4E060084360602878000777
:100A600006D56068296920F4605040EAC1006060E2
:100A700000F01CF86168084AC1F30311515CC840DA
:100A8000064908600020FFF7C7FE0020C4E7000009
:100A90000020024000100240B4110008180000209D
:100AA00001480068704700001800002012A185B0BE
:100AB0000FC98DE80F0014A0144A00680490516813
:100AC000134801F00C03042B10D0082B0ED1C1F3F6
:100AD0008343C9031DF803000AD5516804AAC1F372
:100AE0004041515C0A4A5043B0FBF1F005B07047F9
:100AF00008494843FAE7000002030405060708090D
:100B00000A0B0C0D0E0F1010010200000010024025
:100B100000127A0000093D002DE9F84F04460078E4
:100B2000B94DC00748D06868C0F38100012807D0DC
:100B30006868C0F38100022809D16868C00306D53F
:100B40002868800338D5606800286FD034E060687A
:100B5000B0F5803F0BD010B1B0F5A02F11D02868B0
:100B600020F480302860286820F4802002E0286883
:100B700040F480302860606888B1FFF72DFE06469B
:100B800009E0286840F480202860F0E7FFF724FEA1
:100B9000801B642875D828688003F7D50CE0FFF720
:100BA0001BFE064605E000BFFFF716FE801B64280B
:100BB000F0D828688003F7D42078944E80074FF04F
:100BC00001094FF000083BD5686810F00C0F07D002
:100BD0006868C0F38100022809D16868C00306D4A0
:100BE0002868800714D5206901281FD110E02069EA
:100BF000B0B1C6F80090FFF7EFFD074605E000BF73
:100C0000FFF7EAFDC01B0228C4D828688007F7D583
:100C10002868616920F0F80040EAC10028600FE010
:100C2000C6F80080FFF7D8FD074606E0E9E000BF00
:100C3000FFF7D2FDC01B022823D828688007F7D40D
:100C4000207800072CD57248A169D9B1C0F800906E
:100C5000FFF7C2FD074604E0FFF7BEFDC01B0228F8
:100C60000FD8686A8007F7D56A484FF4FA510068D0
:100C7000B0FBF1F0009000BF0098411E0091FAD245
:100C80000EE080E0C0F80080FFF7A6FD074604E014
:100C9000FFF7A2FDC01B022875D8686A8007F7D449
:100CA0002078400760D5E8690027C00008D4E869CB
:100CB00040F08050E861E869012700F08050009022
:100CC00055480168C90513D40168834641F4807111
:100CD0000160FFF781FD824606E000BFFFF77CFD63
:100CE000A0EB0A0064284ED8DBF80000C005F5D55B
:100CF000E06801280AD008B1052813D0286A20F03E
:100D000001002862286A20F0040002E0286A40F00E
:100D100001002862E06841F2883B98B1FFF75CFD72
:100D200082460BE0286A40F004002862EEE700BF2C
:100D3000FFF752FDA0EB0A0159455AD8286A8007EF
:100D4000F6D50CE0FFF748FD824605E0FFF744FDCD
:100D5000A0EB0A0159454CD8286A8007F6D41FB188
:100D6000E86920F08050E861E06988B36968C1F300
:100D70008101022945D00228C6F8608004D0FFF71F
:100D80002BFD044638E034E0FFF726FD074604E07B
:100D9000FFF722FDC01B02282BD828688001F7D45A
:100DA000206AB0F5803F05D16868A16820F4003062
:100DB00008436860D4E908010843696821F47411A4
:100DC00008436860C6F86090FFF706FD044606E039
:100DD00015E000BFFFF700FD001B022809D82868B6
:100DE0008001F7D50BE000BFFFF7F6FC001B0228DF
:100DF00002D90320BDE8F88F28688001F4D40020D0
:100E0000F8E70120F6E7000000100240000042422F
:100E10008004424218000020007000404FF0E021A2
:100E20000428086903D020F004000861704740F0EE
:100E30000400FAE7704710B5401EB0F1807F01D37F
:100E4000012010BD4FF0E02460610F21601700F019
:100E500001F90020A06107202061002010BD10B51D
:100E6000FFF7E8FF10BDFEE72DE9F04100252E4C0D
:100E700007462E4601292A460FD020212046FFF79B
:100E8000A6FC1F20FFF771FB012208212046FFF777
:100E90009EFC380603D5012202E01021EEE7002275
:100EA00004212046FFF793FC1F20FFF75EFB002282
:100EB00008212046FFF78BFC7806070E1F20FFF75E
:100EC00054FB761CF6B2082EDED300261F20FFF757
:100ED0004CFB012208212046FFF779FC6806050E2D
:100EE0001F20FFF742FB01212046FFF76BFC08B1F2
:100EF0006D1CEDB2002208212046FFF768FC1F2080
:100F0000FFF733FB761CF6B2082EE2D30122102144
:100F10002046FFF75CFC012220212046FFF757FC0A
:100F20002846BDE8F0810000001001402DE9F041A5
:100F300000252D4C012A0E4607462A460FD02021B7
:100F40002046FFF744FC1F20FFF70FFB012208217A
:100F50002046FFF73CFC380603D5012202E01021B1
:100F6000EEE7002204212046FFF731FC1F20FFF7A7
:100F7000FCFA002208212046FFF729FC7806070E1C
:100F80001F20FFF7F2FA6D1CEDB2082DDED300250D
:100F9000012208212046FFF71AFC300601D5012264
:100FA00000E0002204212046FFF711FC1F20FFF77C
:100FB000DCFA002208212046FFF709FC7006060E25
:100FC0001F20FFF7D2FA6D1CEDB2082DE0D30122ED
:100FD00010212046FFF7FBFB2046BDE8F04101222F
:100FE0002021FFF7F4BB000000100140F0B51648C7
:100FF00085B0816941F010018161816901F01001C2
:101000000491816941F00401816180690F4F00F012
:101010000400049001223C213846FFF7D8FB03244A
:10102000002501268DE8700069463846FFF7D6FA9C
:101030003C20CDE90006CDE9025469463846FFF769
:10104000CDFA05B0F0BD00000010024000100140D4
:10105000FEE770470907090E002806DA00F00F00C6
:1010600000F1E02080F8141D704700F1E02080F8C6
:10107000001470477047704710B5FFF7B3FBBDE829
:101080001040FFF7ECBE30B58FB002250120049070
:1010900000951020059000244FF42010CDE9084061
:1010A00007956846FFF738FD00B1FEE70F20CDE950
:1010B0000A054FF48060CDE90C4001210AA80E9486
:1010C000FFF744FC00B1FEE7FFF7EAFC4FF47A714A
:1010D000B0FBF1F0FFF7AFFE0420FFF79FFE002208
:1010E0001146501EFFF700FC0FB030BD0D480168DF
:1010F00041F00101016041680B4A11404160016803
:101100000A4A11400160016821F4802101604168B0
:1011100021F4FE0141604FF41F0181600449C003C6
:1011200008607047001002400000FFF8FFFFF6FE65
:1011300008ED00E0FEE702E008C8121F08C1002A1F
:10114000FAD170477047002001E001C1121F002A48
:10115000FBD17047FFF74EFBFFF795FFFFF746FF08
:101160000122C1218020FFF7E1FE0222C12180205F
:10117000FFF7DCFE0D4D0E4C2846FFF7F6F9012077
:10118000FFF7FCF960602846FFF7EFF90220FFF750
:10119000F5F9A06001210720FFF766FE207002210B
:1011A0000720FFF761FE6070E6E70000FFFF010027
:1011B0000000002000000000000000000102030405
:1011C00006070809E4110008000000201C000000C8
:1011D00036110008001200081C0000200404000062
:1011E00046110008000000000000000000000000A0
:1011F00001000000100000000000000000A24A04EE
:0400000508000131BD
:00000001FF
