:020000040800F2
:1000000018040020F51800088D1800088F18000843
:1000100091180008931800089518000800000000C7
:100020000000000000000000000000009718000819
:1000300099180008000000009B1800089D1800088F
:100040001119000815190008191900081D190008D0
:100050002119000825190008291900082D19000880
:100060003119000835190008391900083D19000830
:100070004119000845190008491900084D190008E0
:100080005119000855190008591900085D19000890
:100090006119000865190008691900086D19000840
:1000A0007119000875190008791900087D190008F0
:1000B0008119000885190008891900088D190008A0
:1000C0009119000895190008991900089D19000850
:1000D000A1190008A5190008A9190008AD19000800
:1000E000B1190008B5190008B9190008BD190008B0
:1000F000C1190008C5190008C9190008CD19000860
:10010000D1190008D5190008D9190008DD1900080F
:10011000E1190008E5190008E9190008ED190008BF
:10012000F1190008F5190008F9190008FD1900086F
:100130007CB5040000252078C00740F18480DFF8FA
:100140007406006810F00C0004280BD0DFF8640679
:10015000006810F00C0008280ED1DFF8580600687F
:10016000C00309D5DFF84806006880036BD56068D6
:10017000002868D1012005E26068B0F5803F08D111
:10018000DFF82C06006850F48030DFF82416086091
:1001900038E06068002810D1DFF81406006830F4F9
:1001A0008030DFF80C160860DFF80406006830F4D1
:1001B0008020DFF8FC15086024E06068B0F5A02F0F
:1001C00010D1DFF8EC05006850F48020DFF8E0156E
:1001D0000860DFF8DC05006850F48030DFF8D015E7
:1001E00008600FE0DFF8C805006830F48030DFF801
:1001F000C0150860DFF8B805006830F48020DFF82B
:10020000B0150860606800280ED000F0F1FA050013
:10021000DFF89C050068800315D400F0E9FA401B64
:100220006528F5D30320ADE100F0E2FA0500DFF820
:1002300080050068800306D500F0DAFA401B6528C7
:10024000F5D303209EE1207880075CD5DFF86405B4
:10025000006810F00C0F0BD0DFF85805006810F0A4
:100260000C0008281AD1DFF84C050068C00315D42B
:10027000DFF83C050068800704D52069012801D01B
:1002800001207FE1DFF82805006830F0F80061699F
:1002900050EAC100DFF81815086034E02069002832
:1002A0001ED00120DFF81C15086000F0A1FA05003F
:1002B000DFF8FC040068800706D400F099FA401BC0
:1002C0000328F5D303205DE1DFF8E404006830F093
:1002D000F800616950EAC100DFF8D414086012E048
:1002E0000020DFF8E014086000F082FA0500DFF873
:1002F000C0040068800706D500F07AFA401B032886
:10030000F5D303203EE1207800072CD5A069002812
:1003100016D00120DFF8B014086000F069FA05007B
:10032000DFF89C040068800706D400F061FA401BE7
:100330000328F5D3032025E1012000F024FA12E080
:100340000020DFF88414086000F052FA0500DFF89E
:1003500070040068800706D500F04AFA401B0328A5
:10036000F5D303200EE12078400740F1A880002655
:10037000DFF858040068C00010D4DFF850040068AB
:1003800050F08050DFF844140860DFF84004006843
:1003900010F080500090009801200600DFF8300433
:1003A0000068C00516D4DFF82804006850F4807097
:1003B000DFF81C14086000F01BFA0500DFF81004D9
:1003C0000068C00506D400F013FA401B6528F5D379
:1003D0000320D7E0E068012808D1DFF8F8030068BF
:1003E00050F00100DFF8EC13086037E0E068002807
:1003F00010D1DFF8E003006840084000DFF8D413B4
:100400000860DFF8D003006830F00400DFF8C413A0
:10041000086023E0E068052810D1DFF8B803006821
:1004200050F00400DFF8AC130860DFF8A8030068A0
:1004300050F00100DFF89C1308600FE0DFF8940330
:10044000006840084000DFF88C130860DFF8840380
:10045000006830F00400DFF87C130860E0680028D2
:1004600010D000F0C5F90500DFF8680300688007C8
:1004700019D400F0BDF9401B41F289318842F3D311
:1004800003207FE000F0B4F90500DFF848030068BE
:10049000800708D500F0ACF9401B41F28931884251
:1004A000F3D303206EE03000C0B2012807D1DFF89B
:1004B0001C03006830F08050DFF810130860E0691A
:1004C00000285ED0DFF8EC02006810F00C0008286D
:1004D00055D0E06902283FD10020DFF8FC12086007
:1004E00000F086F90600DFF8C8020068800106D532
:1004F00000F07EF9801B0328F5D3032042E0206A38
:10050000B0F5803F09D1DFF8AC02016831F4003169
:10051000A0680143DFF89C020160DFF898020168DF
:1005200031F47411206A0143606A0143DFF88402E8
:1005300001600120DFF8A012086000F059F9050001
:10054000DFF86C02006880011BD400F051F9401BF9
:100550000328F5D3032015E00020DFF87C120860A3
:1005600000F046F90500DFF848020068800108D570
:1005700000F03EF9401B0328F5D3032002E00120E0
:1005800000E0002076BD70B504000D000026DFF805
:100590004C02006810F00700A84211D2DFF83C02BC
:1005A0000068C008C0002843DFF830120860DFF898
:1005B0002C02006810F00700A84201D00120A5E03D
:1005C0002078800709D5DFF8EC01016831F0F001EF
:1005D000A0680143DFF8DC0101602078C0075AD52C
:1005E0006068012806D1DFF8C8010068800312D4D2
:1005F00001208BE06068022806D1DFF8B4010068B2
:10060000800108D4012081E0DFF8A40100688007A0
:1006100001D401207AE0DFF89C0101688908890093
:1006200060680143DFF88C01016000F0E1F806002A
:10063000606801280FD1DFF87C01006810F00C0021
:10064000042828D000F0D4F8801B41F28931884278
:10065000F1D303205AE0606802280ED155480068A3
:1006600010F00C00082816D000F0C2F8801B41F2F0
:1006700089318842F2D3032048E04E48006810F0E8
:100680000C0F08D000F0B4F8801B41F28931884289
:10069000F3D303203AE05148006810F00700854288
:1006A0000ED24E480068C008C00028434B4908607D
:1006B0004A48006810F00700A84201D0012025E058
:1006C0002078400707D53B48016831F4E061E068D5
:1006D0000143384801602078000708D53548006894
:1006E00030F46050216950EAC1003249086000F0DE
:1006F0000EF83B492F4A1268C2F30312895CC840C6
:100700002E490860002000F079F8002070BD78B50F
:1007100085B001A83349102200F096F832480088CD
:10072000ADF8000000200021002200230024214D0C
:100730002D6815F00C06042E02D0082E02D01CE005
:100740001D481BE001A8C5F38346805D0300E80354
:100750000DD56846174E3668C6F34046805D0100E9
:10076000154800FB03F0B0FBF1F0020003E01F4866
:1007700000FB03F00200100000E00F4806B070BD5F
:100780000E480068704781B00C490968C9084FF4E9
:100790007A72B1FBF2F101FB00F1009100BF009908
:1007A0004A1E00920029F9D101B0704700000000F4
:1007B000001002400410024000127A0004000020E1
:1007C0002410024000004242800442421C100240B9
:1007D00000700040201002406000424200200240B1
:1007E000E4180008D4180008CE08000800093D00ED
:1007F00001480068704700BF0C00002010B50400DD
:100800004FF47A700D490978B0FBF1F00C49096892
:10081000B1FBF0F000F0D9F8002801D001200CE085
:10082000102C09D2002221005FF0FF3000F0B8F850
:1008300004480460002000E0012010BD10000020EA
:100840000400002000000020103A07D330B4B1E8C3
:100850003810103AA0E83810F9D230BC530724BF42
:10086000B1E80810A0E8081044BF51F8043B40F874
:10087000043BD20724BF31F8022B20F8022B44BFDF
:100880000B7803707047121F17D35B0009D151F822
:10089000043B20F8023B1B0C121F20F8023BF6D24F
:1008A0000BE051F8043B00F8013B1B0A20F8023B27
:1008B0001B0C121F00F8013BF3D238BF121D521E51
:1008C00024BF11F8013B00F8013BF8D87047010242
:1008D00010F0070348490A684FF6FF010A404749EC
:1008E00051EA03210A4344490A60704742480068BC
:1008F000C0F30220704710B4020052B2002A09D59A
:100900000A013F4B040064B214F00F04234403F8BF
:10091000042C04E00A013B4B040064B21A5510BCDD
:10092000704770B4030013F00704D4F107000528E2
:1009300001D3042001E0D4F10700251D072D01D2C9
:10094000002500E0E51E012616FA00F0401E0140D9
:10095000A940012010FA05F56D1E2A401143080038
:1009600070BC704710B50400601EB0F1807F01D3E9
:1009700001200EE0601E244908600F215FF0FF3067
:10098000FFF7B9FF002021490860072020490860CF
:10099000002010BD10B504002000FFF799FF10BD26
:1009A0002DE9F04104000D0016000027FFF79EFF1F
:1009B0008046320029004046FFF7B3FF01002000C7
:1009C00040B2FFF798FFBDE8F08110B504002000A9
:1009D000FFF7C8FF10BD042806D10D49096851F082
:1009E00004010B4A116005E00949096831F004016E
:1009F000074A1160704700000CED00E00000FA05A6
:100A000018ED00E000E400E014E000E018E000E091
:100A100010E000E080B500F001F801BD7047000073
:100A20002DE9F843020000240025002600275FF08E
:100A300000085FF0000EBEF1100F80F0158101205C
:100A400010FA0EF00400086820400500A54240F0AE
:100A500008814868002831D0012820D0022825D0FC
:100A600003283CD011281DD0122823D0DFF82CC237
:100A7000604523D0DFF828C260451FD0DFF824C2CC
:100A800060451BD0DFF820C2604517D0DFF81CC2DC
:100A9000604513D0DFF818C260450FD022E0C86867
:100AA00007001FE0C868001D07001BE0C868083089
:100AB000070017E0C8680C30070013E088680028BA
:100AC00002D10420070009E08868012803D108202A
:100AD0000700146102E008200700546102E00020D2
:100AE0000700FFE7B5F5807F01D2130000E0131D7A
:100AF000B5F5807F02D25FEA8E0803E0BEF10808F8
:100B00005FEA8808D3F800C00F2010FA08F03CEA2A
:100B1000000C17FA08F050EA0C0CC3F800C0486843
:100B2000C00040F19E80DFF88C01006850F00100A9
:100B3000DFF880C1CCF80000DFF87801006810F021
:100B4000010000900098DFF87001F4465FEA9C0C09
:100B500050F82CC05FF00F091EF00300C0B28000F7
:100B600019FA00F93CEA090C5448824202D15FF0BC
:100B700000091FE05248824202D15FF0010919E0EA
:100B80005048824202D15FF0020913E04E4882428F
:100B900002D15FF003090DE04C48824202D15FF0C0
:100BA000040907E04A48824202D15FF0050901E0EA
:100BB0005FF0060966461EF00300C0B2800019FA15
:100BC00000F959EA06063C48F4465FEA9C0C40F8F6
:100BD0002C604868C00307D53E4800682843DFF80A
:100BE000F4C0CCF8000006E03A480068A843DFF8FB
:100BF000E4C0CCF800004868800307D53648006898
:100C00002843DFF8D4C0CCF8000006E03248006882
:100C1000A843DFF8C4C0CCF800004868C00207D57C
:100C20002E4800682843DFF8B4C0CCF8000006E086
:100C30002A480068A843DFF8A4C0CCF80000486840
:100C4000800207D5264800682843DFF894C0CCF816
:100C5000000006E022480068A843DFF884C0CCF812
:100C600000001EF1010EE6E6BDE8F1830200906887
:100C70000B009BB2184201D0012000E00020C0B25E
:100C800070471300DBB2002B03D00B009BB2036153
:100C900003E00B009BB21B040361704700001110BE
:100CA000000012100000211000002210000031107E
:100CB00000003210181002400800014000080140F6
:100CC000000C0140001001400014014000180140D8
:100CD000001C0140000401400404014008040140DC
:100CE0000C040140F0B540F2FF7581EA030C0CF0F2
:100CF000004C15EA11541DBF15EA1357AC42AF4220
:100D0000E5E0BC41C1F31301C3F31303801A994119
:100D100043F4801304D2641E4000494180185941B5
:100D2000C90241EA5051B1FBF3F603FB1611A2FBD5
:100D30000675D7EBC020A94102D2761E8018594112
:100D4000C90241EA5051B1FBF3FE03FB1E11A2FBA5
:100D50000E75D7EBC020A94103D2AEF1010E801869
:100D60005941890241EA9051760546EA8E2EB1FB3F
:100D7000F3F603FB1611A2FB0675D7EB8020A94101
:100D800002D2761E80185941C90241EA50514EEAFA
:100D9000060EB1FBF3F603FB1611A2FB0675D7EBAB
:100DA000C020A94102D2761E80185941C90241EAE9
:100DB0005051B1FBF3F703FB1711A2FB0735D3EB3F
:100DC000C020A94167F100070CBF004247F00107AE
:100DD00066F3D5274FEA1E31B80814F5806412DD9A
:100DE000BD0775F1004250EB0E5051EB045111F567
:100DF000801F5CBF41EA0C01F0BD4CF07F6141F007
:100E0000E0410020F0BDBD076D0840EA0E5041F4FE
:100E10008011D4F10104B4F120060ADAC4F12006ED
:100E20000200E04001FA06F3E1401843B2401543E6
:100E30000EE0342C13DCC6F1200445EA40056D08B1
:100E400020FA06F2154321FA06F0A1400D430021D5
:100E500075F1004250F1000051EB0C01F0BD002093
:100E60005FEA0C01F0BDCFB992185B41B3FA83F78A
:100E700004BFB2FA82F6BF190B3FB7F120062FBFAD
:100E800002FA06F3BB40C7F1200622FA06F638BF85
:100E90003343BA401CB1E419641E33E77F4231F09A
:100EA0000041B1FA81F404BFB0FA80F6A4190B3CFA
:100EB000B4F120062FBF00FA06F1A140C4F12006CC
:100EC00020FA06F638BF3143A0403C1B1AE7AC427B
:100ED0001ABF05EA1357AF4212E050EA41061CBFA1
:100EE00052EA4306BFE750EA4107304661461CBF5D
:100EF00041EA0551F0BD52EA430C08BFC143F0BDC1
:100F000000204FF4001616EB410F98BF16EB430F6D
:100F100008BF16EB410F24BFC14305E016EB430F9A
:100F20000CBF61464CEA0551F0BD000001B40098C9
:100F3000002803D00098401E0090F8E701B07047E9
:100F40002DE9F041050000240026002210217348FD
:100F5000FFF797FE1F20FFF7E9FF00273800C0B218
:100F600008281FDA012208216C48FFF78AFE2806AC
:100F700005D5012204216948FFF783FE04E0002221
:100F800004216648FFF77DFE1F20FFF7CFFF0022F8
:100F900008216248FFF775FE6D001F20FFF7C6FFAE
:100FA0007F1CDBE700261F20FFF7C0FF5FF0000873
:100FB0004046C0B208281ADA012208215748FFF734
:100FC00060FE64001F20FFF7B1FF01215348FFF7C7
:100FD0004DFE002800D0641C002208214F48FFF776
:100FE00050FE1F20FFF7A2FF18F10108E0E70122E1
:100FF00010214A48FFF745FE2000C0B2BDE8F0814D
:10100000F8B505000C000026002210214348FFF728
:1010100038FE1F20FFF78AFF00273800C0B20828DB
:101020001FDA012208213D48FFF72BFE280605D5CF
:10103000012204213948FFF724FE04E000220421A4
:101040003648FFF71EFE1F20FFF770FF0022082121
:101050003248FFF716FE6D001F20FFF767FF7F1C69
:10106000DBE700263000C0B208281FDA0122082181
:101070002A48FFF706FE200605D50122042127484D
:10108000FFF7FFFD04E0002204212448FFF7F9FDEB
:101090001F20FFF74BFF002208212048FFF7F1FD3A
:1010A00064001F20FFF742FF761CDBE701221021BE
:1010B0001A48FFF7E6FDF1BD2DE9F04100240120BB
:1010C000FFF73EFF05000220FFF73AFF06005FF042
:1010D000800808FB05F8300080B2022190FBF1F790
:1010E000404680B2390089B2081800F021F80100AA
:1010F0000B4800F02FF85FF08E4100F097F80100E8
:10110000084800F011F900F081F9074A074BFFF792
:10111000E9FD00F09FF9BDE8F081000000100140FA
:101120000000D7430000C8C269520ABABDA4D83F24
:10113000C2175040801AB0FA80F10AD08840D1F12D
:101140009D01D20742EAC151020672F1004241EB11
:1011500010207047FF2212EAD05C1DBF12EAD15363
:10116000944593422BE09C44D30780EA01021A4045
:1011700043EA002043EA0121A1FB0030C04238BF0E
:1011800040007CF17F010BDBFE294ADA5B0842EA72
:10119000C15153EA006373F1004C51EB10207047CA
:1011A000D1F1080CDCF120012FDB5B0810FA01F112
:1011B0000B4320FA0CF073F1004150417047944505
:1011C0001CBF02EAD153934280EA010202F00042BE
:1011D0001DD0400019D0490017D05BB9634514D029
:1011E0000902B1FA81F39940BCEB030CC00140F055
:1011F0000040C1E70002B0FA80FC10FA0CF0B3EB3B
:101200000C0CC90141F00041B6E7100070474000E6
:101210000AD0490008D010F1807F94BF11F1807F7F
:1012200002E042F0FF407047D043704710B5FF2303
:1012300013EAD0541DBF13EAD1529C429A4239E0BE
:10124000A41ADA0780EA0103134042EA012142EAC4
:101250000020421A3CBF641E01EB4202090AB2FBA5
:10126000F1FE01FB1E221202B2FBF1F001FB102283
:101270006EF30F201202B2FBF1FE4EEA00207F3423
:1012800006DDFE2C24DA53EA500050EBC45010BDAA
:10129000D4F1020401FB1E2240F08071192C1DDCE8
:1012A00021FA04F0C4F12004A140114371F100427D
:1012B000584110BD9C421ABF03EAD1529A420FE036
:1012C00080EA010E0EF00043400004D0490016D120
:1012D00043F0FF4010BD490008BFD343180010BDC4
:1012E0009C4205D1D21AF7D001F00041484010BD10
:1012F0004A0212BF0846484000F0004010BD4AB9FB
:101300000902B1FA81F2914044B1A418C00140F041
:1013100000409EE7C90141F0004152420002B0FA8C
:1013200080F4A040141B94E790EA010F40F1C680BE
:1013300081F00041431A4FF000423EBF5340C01AB3
:10134000C91800BFD3095FEAD05C13EB400F34BF6C
:10135000B3EB410F40E07CEBD1530CD342EA0121C7
:1013600022D8D1EB402009D3400A28BF5FEA5001C0
:1013700040EBCC507047401A15D04002B0FA80F2D2
:10138000521C9040400A4FEA3C23B3EB026384BFF7
:1013900000EB730007E040F400001A16DB07C2F10F
:1013A0000102D04018437047182BFCDC31FA03F2DD
:1013B00002FA03F3591A38BF42F00102D2EB40207F
:1013C0003CBF4000ACF1010C5FEACC5CC20572F19D
:1013D00000414CEB5020704713EB400F0FD2C94235
:1013E00009D0ACEBD153022B03DB4902172BDDDD17
:1013F00070479143401AC042D5D10020704713EB8B
:10140000410FD0D36FF0000070470000C0F3C75108
:1014100081B1FF2906D0C110400721F0E04101F160
:101420006051704741020CBF40F4E0016FF0004191
:101430000020704700F0004100020AD0B0FA80FCA2
:1014400000FA0CF001F16051A1EB0C5101EBD0213D
:101450004005704701F000428B1AA3F16051B1F5CD
:10146000801F0ADBB1F17F6F1FD242EAC102C100C7
:1014700071F1004142EB507070470B15C3F1090345
:10148000212B10D2890241EA905180020128494162
:1014900041F0004121FA03F0C3F12003994071F1BA
:1014A000004150417047100070476FF0000013EB8F
:1014B000103F5CBF000E42EAC0507047421A3CBF6A
:1014C000801A89184FF0004CC0F3C752FF2A24D06D
:1014D000C1F3C75313B3D21AD2F1190327DD4CEA73
:1014E00001214CFA03F321EA0303D140C20D4CEA77
:1014F0000020401834BF20EA0C004CEA5000D2050E
:1015000053EA006373EB0C0C52EB1020420012F113
:10151000807F38BF7047C00DC0057047490212BFB9
:101520009A4200EB5120F8E7D2F11703D9D5704762
:1015300080B500F099F800F013F800F051F8C121DF
:101540008020FFF75DFD4148FFF7F0FCFFF7B4FD99
:101550003F4908600720FFF7F3FC3E490870F2E7B7
:1015600000B58FB0022005900120099010200A904C
:1015700002200C9000200D905FF420100E9005A822
:10158000FEF7D6FD002803D08B21334800F06AF81F
:101590000F20009002200190002002904FF4806004
:1015A00003900020049001216846FEF7ECFF00281C
:1015B00003D09921284800F055F8FFF7E1F84FF4DF
:1015C0007A71B0FBF1F0FFF700FA0420FFF703FA9D
:1015D000002200215FF0FF30FFF7E2F90FB000BDFD
:1015E00000B585B01D48006850F010001B49086028
:1015F0001A48006810F01000009000981748006822
:1016000050F00400154908601448006810F0040008
:101610000090009801221C211148FFF732FB0320A3
:1016200001900020029001A90D48FFF7F9F91C2054
:10163000019001200290002003900320049001A952
:101640000748FFF7EDF905B000BD0000FFFF0100FE
:101650000800002011000020A41700081810024004
:1016600000100140FEE7000080B50848006850F017
:101670001000064908600320FFF78CF90020FFF7EF
:10168000BDF800F005F8002002BD00000020024077
:1016900080B52748006850F00100254908602448BB
:1016A000006810F00100009000982248006850F097
:1016B0008050204908601F48006810F0805000905A
:1016C00000980320FFF766F9002200217FF00B004D
:1016D000FFF766F9002200217FF00A00FFF760F9AA
:1016E000002200217FF00900FFF75AF900220021B3
:1016F0007FF00400FFF754F9002200217FF003007F
:10170000FFF74EF9002200217FF00100FFF748F9B2
:10171000002200215FF0FF30FFF742F90648006821
:1017200030F0E06050F000700349086001BD00BF78
:10173000181002401C1002400400014013480068C9
:1017400050F001001149086011480168114801403A
:101750000F4801600D4801680F4801400B480160C7
:101760000A48006830F4802008490860084800688A
:1017700030F4FE00064908605FF41F000749086066
:101780005FF00060064908607047000000100240EA
:10179000041002400000FFF8FFFFF6FE08100240B0
:1017A00008ED00E0433A5C55736572735C475C4436
:1017B00065736B746F705C636F6465207265706FC6
:1017C0005C663372635F7370695C7370695C5372DB
:1017D000635C6D61696E2E630000000010B450F808
:1017E000041B79B10268436802440830DC0744BF37
:1017F000A9F10104E31852F8044B43F8044B091F04
:10180000F9D1ECE710BC704710B50749794418319D
:10181000064C7C44163404E00A68081D11448847CD
:101820000146A142F8D110BD0800000018000000D8
:10183000ADFFFFFF14000000880000000000002042
:101840000000000000F00DF8002801D0FFF7DCFFD9
:10185000AFF300800020AFF30080FFF769FE00F0D7
:1018600002F80120704700F001B800000746384632
:1018700000F002F8FBE7000080B5AFF30080024AF9
:1018800011001820ABBEFBE7260002007047FEE700
:10189000FEE7FEE7FEE770477047704780B500F04F
:1018A00003F8FFF7B7F801BD034801680348007863
:1018B00041180148016070470C0000201000002012
:1018C0001000000000A24A04000000000000000018
:1018D0000100000002030405060708090A0B0C0DAD
:1018E0000E0F1010000000000000000001020304B1
:1018F0000607080901488047014800473D170008CE
:1019000005190008AFF30080AFF30080FFF79AFFDE
:10191000FFF7FEBFFFF7FEBFFFF7FEBFFFF7FEBFFB
:10192000FFF7FEBFFFF7FEBFFFF7FEBFFFF7FEBFEB
:10193000FFF7FEBFFFF7FEBFFFF7FEBFFFF7FEBFDB
:10194000FFF7FEBFFFF7FEBFFFF7FEBFFFF7FEBFCB
:10195000FFF7FEBFFFF7FEBFFFF7FEBFFFF7FEBFBB
:10196000FFF7FEBFFFF7FEBFFFF7FEBFFFF7FEBFAB
:10197000FFF7FEBFFFF7FEBFFFF7FEBFFFF7FEBF9B
:10198000FFF7FEBFFFF7FEBFFFF7FEBFFFF7FEBF8B
:10199000FFF7FEBFFFF7FEBFFFF7FEBFFFF7FEBF7B
:1019A000FFF7FEBFFFF7FEBFFFF7FEBFFFF7FEBF6B
:1019B000FFF7FEBFFFF7FEBFFFF7FEBFFFF7FEBF5B
:1019C000FFF7FEBFFFF7FEBFFFF7FEBFFFF7FEBF4B
:1019D000FFF7FEBFFFF7FEBFFFF7FEBFFFF7FEBF3B
:1019E000FFF7FEBFFFF7FEBFFFF7FEBFFFF7FEBF2B
:1019F000FFF7FEBFFFF7FEBFFFF7FEBFFFF7FEBF1B
:0400000508001905D1
:00000001FF
