:020000040800F2
:1000000078050020053800088B3700088D37000878
:100010008F37000891370008933700080000000070
:1000200000000000000000000000000095370008FC
:100030009737000800000000993700089B37000838
:1000400043380008473800084B3800084F3800088C
:1000500053380008573800085B3800085F3800083C
:1000600063380008673800086B3800086F380008EC
:1000700073380008773800087B3800087F3800089C
:1000800083380008873800088B3800088F3800084C
:1000900093380008973800089B3800089F380008FC
:1000A000A3380008A7380008AB380008AF380008AC
:1000B000B3380008B7380008BB380008BF3800085C
:1000C000C3380008C7380008CB380008CF3800080C
:1000D000D3380008D7380008DB380008DF380008BC
:1000E000E3380008E7380008EB380008EF3800086C
:1000F000F3380008F7380008FB380008FF3800081C
:1001000003390008073900080B3900080F390008C7
:1001100013390008173900081B3900081F39000877
:1001200023390008273900082B3900082F39000827
:100130002DE9F84F0FF2D017A2B0D7E90045CDE96D
:1001400000452C9EDFF82C7C04918DF84360002143
:100150000FF2BC140D9112944FF0FF368246904678
:1001600099460FE0C3462C461BF8011B0498D04764
:100170000028049000F0B2800D98401C641E0D9081
:10018000F2D1A84498F80000252807D10021079152
:10019000089109910A910B910C910DE06A46314644
:1001A000404600F0CFFF050001D10D98B4E0D9D54D
:1001B0000125E6E741F0010118F8010F2028F9D0E8
:1001C00023280CD02B2804D02D2805D0302809D086
:1001D00086E041F00201EFE741F00401ECE741F075
:1001E0000801E9E741F01001E6E700200F900AE07E
:1001F0000F98B84205DA00EB800302EB4302303A75
:100200000F9208F1010898F80020A2F130000A28A6
:10021000EED398F800002E2818BF0E9629D118F8B2
:10022000010F2A280BD1D9F80000C9F8000008F105
:10023000010850F8042BC9F800000E9219E02D288F
:100240000CBF18F8010B002000220E920BE040B901
:100250000E9ABA4205DA02EB820403EB4403303B08
:100260000E9308F1010898F80030A3F130020A2A31
:10027000EDD3ADF84010129898F8001000F06EFF22
:1002800008B118F8010B8DF842009DF8420068286B
:1002900004BF98F80010682903D162208DF842004D
:1002A00008E06C2804BF98F800006C2804D1712184
:1002B0008DF8421008F1010813A806904A4618F874
:1002C000013B02A9504600F067F838B913AA02A909
:1002D000504600F0C9F900287FF554AF30461BE0C6
:1002E0002A2882D1D9F80020C9F8002052F8040B3E
:1002F000C9F8002000280F9003D540420F9041F02C
:10030000040108F1010884E700000000000000007B
:10031000686A6C747A4C000023B0BDE8F08F6228E4
:1003200020D0682811D06A2803D06C2827D07128E3
:1003300025D10868C01D20F007000860D0E900231F
:1003400008300860194610467047002A0A680A609B
:10035000106803D0121D0A6000B217E0121D0A6077
:1003600080B217E0002A0A680A60106803D0121DE4
:100370000A6040B20AE0121D0A60C0B20AE0002A18
:100380000A680A60106803D0121D0A60C11770471E
:10039000121D0A60002170477CB50D4611461C46AF
:1003A0002E69B4F1250200F04D811C3A00F08680E0
:1003B000121F022A40F282800E3A00F00781521F7B
:1003C0005AD0093A7AD0921E16D0521E35D0521EFB
:1003D000022A73D9121F30D0521F00F09A80521E89
:1003E0004AD0521E00F0E480D21E00F0FD80921E22
:1003F00042D0D21E40D02BE195F83A206C2A09D089
:100400006869421C6A610A680A6052F8043B0A6023
:10041000335427E10A680A6052F8043B0A6000215D
:10042000009301914FF0FF322A6329466A4600F09B
:1004300096F9002840F1168101E195F83A00012271
:10044000FFF76DFFC5E900010023994204DA6869EE
:10045000411C69612D210DE0288F810704D5686951
:10046000411C69612B2105E0C00722D56869411C48
:100470006961202131541CE095F83A000022FFF711
:100480004EFFC5E9000195F83800010711D5D5E9FF
:1004900000230020834208BF82420AD044F020009B
:1004A000782806D1686930213154401C411C6961AB
:1004B0003454214668693044E86083E00868C01D10
:1004C00020F007000860D0E9002308300860C5E983
:1004D0000023D5E90001C80F04D06869411C696197
:1004E0002D210DE0288F810704D56869411C6961C1
:1004F0002B2105E0C00704D56869411C69612021F2
:10050000315468693044E8602146284600F032FAE8
:10051000A8E005F13A02507820B14FF0FF340FF611
:10052000243070E01078622808D0682824D06A2827
:1005300012D06C282ED071280ED02BE00A680A60E9
:1005400052F8040B0A6020B94FF0FF340FF60C305C
:1005500059E0E96A017085E00A680A6052F8040B04
:100560000A6020B94FF0FF340FF6F0204BE0EA6A42
:10057000D317C0E9002375E00A680A6052F8040B3B
:100580000A6020B94FF0FF340FF6D0203BE0E96A53
:10059000018067E00A680A6052F8040B0A6020B91B
:1005A0004FF0FF340FF6B4202DE0E96A016059E006
:1005B0000A680A6052F8040B0A600021C5E90001CC
:1005C000EE607821284600F029F94BE06C2285F88E
:1005D0003A200B680B6053F8042B0B6052BB4FF0B2
:1005E000FF340FF6AC200EE095F83A206C2AF0D0DC
:1005F0000868086050F8044B0860EC603CB94FF0A4
:10060000FF340FF6702000F0B5FD201A76BD2E6B7A
:10061000002E04D5204600F0CFFD044608E0324607
:100620000021204600F0E4FD002814BF041B3446DE
:10063000AC6117E0294600F092F8002812D54FF07F
:10064000FF3076BD6869411C69612521315409E09C
:100650006969481C686125227254210002D0411C3E
:1006600069613454002076BD2DE9F0410E460546FF
:10067000716B7069B46A091A306A091AB069091A8B
:10068000706A091AF069091A96F838000C1B4107BC
:1006900090460DD4002C0BDD2746B0682021A847DA
:1006A0000028B06057D0F06A401C7F1EF062F4D181
:1006B000736942463146284600F0ACFC00284AD116
:1006C000376A002F0ADDB0683021A8470028B060E3
:1006D00041D0F06A401C7F1EF062F4D1B369F26829
:1006E0003146284600F096FCA8BB776A002F09DD4A
:1006F000B0683021A847B06068B3F06A401C7F1E24
:10070000F062F5D1F068B169F369421831462846C4
:1007100000F080FCF8B9B76A002F09DDB06830211D
:10072000A847B060B8B1F06A401C7F1EF062F5D1F6
:1007300096F8380041070BD5002C09DDB068202160
:10074000A847B06038B1F06A401C641EF062F5D171
:100750000020BDE8F0814FF0FF30BDE8F0812DE9C9
:10076000F8470D46A3B02F6B002F8146904648BF37
:100770006FF0004700F068FD696B40180FF62C1110
:100780008128D1E90023CDE9012328BF4FF0FF30B4
:100790003ED20024002F2FDDD8F8001001AA6846B1
:1007A00000F0D2FC0646002E35D4D8F8000008B977
:1007B000761E30D4B7421FDB6869301881280AD30F
:1007C0000020686303AA29464846FFF74DFF04004E
:1007D00012D40020686103A8D5F814A032466946F7
:1007E000504400F037FDB244C5F814A058F8040B8B
:1007F000002818BFBF1BCDD12CB903AA29464846F3
:10080000FFF732FF044614B9002068616863204690
:1008100024B0BDE8F0874FF0FF34F8E72DE9FC473E
:1008200007468A463E69BAF16F0F08BF082405D013
:100830004AF02001782914BF0A2410243C25D7E966
:100840000023BAF1640F18BFBAF1690F90469946B8
:1008500006D100218B4203DAD8F1000869EB49097F
:100860000020814508BF80451FD1386BE8B9082CAE
:100870004CD197F83800010748D530203B2586F841
:100880003B0043E000280ED597F8380000F0140034
:10089000102808D17A6B7869121A386A121A511A1C
:1008A0000029C8BF3962BDE8F3878DF800A0404633
:1008B00049462246E31700F021FD3032D0B26D1ECA
:1008C0003A28019504DB9DF80000A0F151018A1837
:1008D0007255404649462246E31700F00FFD804618
:1008E00089460020814508BF804503D0F86871190A
:1008F0008842DCD3082C09D197F83800010705D5C8
:10090000715D302902D06D1E30207055C5F13C015B
:10091000B9617019F860386B8142B3DA411A3962F3
:100920004FF6EF70398F01403987BDE8F3872DE925
:10093000D04306460F4614464FF00008DFF83894BF
:1009400012E0E00707D542464B463046394600F0F4
:10095000EDFD06460F464046494642464B4600F0EE
:10096000E5FD641080468946002CEAD130463946C0
:10097000BDE8D0832DE9F34F054641F020048DB04A
:10098000D5E90089612C02AE09D0286B002848BF48
:10099000062003D408BF672C01D101202863D5E9C4
:1009A000002358004015401C0ED119030CD0032021
:1009B000A8619DF8380061381A2802D20FF2F4615C
:1009C00011E00FF2F4610EE058004015401C0FD109
:1009D00019030DD10320A8619DF8380061381A2849
:1009E00014D30FF2DC61E868032200F033FCD3E19A
:1009F000194621F00043B3F5801F10460DD20027A1
:100A0000BB4208BFBA42019703D111E00FF2AC61BB
:100A1000E9E701AA00F05CFE0AE0DFF8607307EB8B
:100A20001352DFF85C3301921940DFF85833194351
:100A3000C5E90001612C0ED1E86830210170811CEC
:100A4000E9609DF8381061290CBF78215821417068
:100A50006869801C6861D5E900AB2BF00043002079
:100A60002AF00002834204BF8242002300F05A8130
:100A7000612C40F0A980286B00284CBF2120401C2D
:100A800000904046009F7F1C49460022002300F052
:100A900057FED94601988DF8082038BF89F00049E3
:100AA000001F0190002FD0460DF1090040F349814D
:100AB00040F2FF71DFF8D0B20C910646404649463D
:100AC0000022002300F054FE80F03A814800400DDF
:100AD00000F11C0210D0002A0EDD0C98824205DBCA
:100AE00009F0004040EA0B01002013E0A448084050
:100AF00040EA025140460DE029F00043002028F072
:100B00000002834208BF82420FBF40461C2240467B
:100B100000F046FE8046894600F0E0FEFF1F002FF1
:100B2000044609DD00F0F8FE02460B464046494601
:100B300000F004FF80468946F01D072104E004F020
:100B40000F0200F8012D2411002C01DD491EF6D5FD
:100B5000491E5CBF002200F8012DF9D5ECE0002011
:100B6000194602AA0A4400E05B1E12F80149491E18
:100B70008442F9D00F2804D10DF10900425C521CC7
:100B80004254002904D50198001D02AE5B1C01905F
:100B9000591E12D49DF838007218147804F13008E8
:100BA0005FFA88F4392CC4BFA0F13A04A044491E6E
:100BB00002F80189F1D58DF83800286B002840F142
:100BC000B080591E2963ACE040464946002200230C
:100BD00000F0B6FD019938BF89F0004947F29750FF
:100BE00041436A4A91FBF2F20192D2F1070204DD1D
:100BF00040464946FFF79BFE0AE052420020644906
:100C0000FFF795FE02460B464046494600F008FFB6
:100C10008046662C286BDFF87CB106BF019F0A373F
:100C200006273F18142FC8BF142730208DF808005E
:100C300089460DF1090000E03046002F34DD0646FC
:100C40004046494601F010F801460A4606F10803FD
:100C500004200A26B2FBF6F606EB860EA2EB4E0245
:100C6000303203F8012C0A22B6FBF2F202EB820EBC
:100C7000A6EB4E063036401E03F8026DE9D1083F60
:100C8000002F03F10806D7DD084601F001F80246FF
:100C90000B464046494600F051FE00225B4600F0FC
:100CA00045FC80468946CBE70DF10901401A0DF15C
:100CB000090604E00199491E401E0191761C317815
:100CC0003029F7D0662C02D10199491C03E0652C2C
:100CD0000CBF012100212B6BCB189842B8BF431EDB
:100CE000002B1ED4834204DAF05C3528A8BF3920DB
:100CF00000DA30201946721E02EB010800E05B1E8C
:100D000018F80199491E8145F9D0392802D1705C43
:100D1000401C7054002904D50198401C16465B1CE9
:100D20000190019800B200901BB29DF83810324635
:100D3000284600F034F82FE0C61D002F3FF7BEAE66
:100D400030460DF10901401A009903468842C8BF98
:100D50000B46002B0DF109063FF52FAF8342BFF67E
:100D6000FEAE0DF10900C05C07287FF7F8AE0F203A
:100D7000F6E60000CBCCCC0C0000244002FCFFFFC8
:100D8000FFFF0F800000E03F0000F07FA086010021
:100D90000000F03F84D797410FB0BDE8F08F2DE9F8
:100DA000F84783B006468A461746984600F0CEF9C3
:100DB000B8F1000F406A356B90F8009003DC4FF0FB
:100DC00001080FF20037BDF930404AF020006628D4
:100DD00008BF641C15D0672840F0848014F1040F0C
:100DE000C0F28680AC4280F2838096F83800641CA2
:100DF000010702D4A845B8BF454620B22D1A48BF06
:100E000000250FFA84FAF068B169BAF1000F25DC09
:100E10004A1C30234354002D03DC96F838000107A8
:100E200003D5F06800F80290521C15EB0A0FB8BF0A
:100E30006C4220B2441941424445B8BFA046B26159
:100E400071620FFA88F5F561F068B3692A46394690
:100E5000184400F0FFF9641BB462C4E022B290456C
:100E6000084417DA4246394600F0F4F9B0694044C4
:100E7000B061AAEB0801002D716203DC96F838100E
:100E80000A0705D5F16801F80090F069401CF0618F
:100E9000B562A8E0394600F0DDF9B069002D504494
:100EA000A8EB040803DC96F838100A0703D5F168AC
:100EB00001F80090401CB0610FFA88F08542F0689C
:100EC000B369B8BFA8460FFA88F207EB0A011844C5
:100ED00000F0C0F9B0690FFA88F10844B061681AEF
:100EE000706280E0BAF1610F14D14FF0700A16E021
:100EF000A84504DA96F838100A0758BF45466D1E13
:100F000048BF0025BAF1670F14BF4FF0450A4FF0F4
:100F1000650A04E0BAF1410F08BF4FF0500AB16909
:100F2000F368481CB061002D17F8012B5A5403DCFC
:100F300096F838100A071BD5F168431CB36101F815
:100F40000090002D14DDA8F101080FFA88F0854209
:100F5000F068B8BFA8460FFA88F23946184400F086
:100F600079F9B0690FFA88F108446D1AB0617562B9
:100F7000F068B1690844002C80F800A003D42B214C
:100F80004170811C03E02D2141706442811C0020CE
:100F90006A460AE023460A2493FBF4F404EB840532
:100FA000A3EB450302F8013B401C24B2002CF1DC0A
:100FB000012806DC4AF02002652A04BF302201F82D
:100FC000012B48B9302001F8010B07E0401E1DF845
:100FD0000020303201F8012B0028F7DCF068B269FC
:100FE0001044091AF16196F8380000F01400102836
:100FF0000DD17169B0694118706A4118F0694118E2
:10100000B06A4118706B8142BCBF411A316204B0B2
:10101000BDE8F087F8B505460E4617461C46002089
:1010200074B117F8011BB068A847B06030B1F06A1E
:10103000401CF0620020641EF3D1F2BD4FF0FF307F
:10104000F2BD00007072696E74665F733A20256E9F
:1010500020646973616C6C6F776564007072696E8F
:1010600074663A2062616420256E20617267756D36
:10107000656E74007072696E74665F733A206261A7
:101080006420257320617267756D656E74000000C1
:101090007072696E74665F733A2062616420256CB9
:1010A0007320617267756D656E740000000000004A
:1010B000000000006E616E004E414E00696E6600D9
:1010C000494E46003000B1F5807F02D34FF0FF302B
:1010D00070470170012070470078401E8041C04376
:1010E000C00F70471B48704730B45368D418042BA6
:1010F00009DA41B1057804F8015B10F8015B15B11C
:101100005B1C491EF3E7536030BC704738B514468A
:101110001D4661B1FFF7E8FF61686A6B20469047A2
:101120006FF00102811A02D0491E03D005E06FF072
:10113000010032BD4FF0FF3032BD0021616032BD91
:10114000DA6B1047034BE1E7024BF9E702487047BF
:101150000000000040000020080000200278C9B212
:101160008A421AB11CBF10F8012FF9E718BF0020FE
:101170007047010280B508B90FF21C0005490B68E1
:101180001BB122220021984701E000F08EFD2220B1
:1011900002BD000070010020636F6E73747261699C
:1011A0006E742068616E646C65723A2062616420BE
:1011B0006D6573736167650000F10103810704D0F9
:1011C00010F8011B89B18107FAD10268B2F101312F
:1011D000914311F0803F04BF50F8042FF6E710F858
:1011E000011B11B110F8011BFBE7C01A704700008A
:1011F000C9B2830706D0521E22D310F8013B994290
:10120000F7D11FE0083A13D302F1040241EA0121A9
:1012100041EA014150F8043B121F21BF4B40A3F1AA
:10122000013C2CEA030C1CF0803FF3D0C9B2001F34
:10123000083210F8013B521E28BF91EA030FF8D87C
:1012400018BF0120401E704780B5FFF74BFF006CB0
:1012500002BD000062B38B0708D0521E11F8013B9B
:1012600000F8013B00F024808B07F6D1830740F0A3
:10127000208000BF103A07D330B4B1E83810103ADC
:10128000A0E83810F9D230BC530724BFB1E80810E9
:10129000A0E8081044BF51F8043B40F8043BD207D3
:1012A00024BF31F8022B20F8022B44BF0B780370C7
:1012B0007047121F17D35B0009D151F8043B20F887
:1012C000023B1B0C121F20F8023BF6D20BE051F838
:1012D000043B00F8013B1B0A20F8023B1B0C121FC9
:1012E00000F8013BF3D238BF121D521E24BF11F883
:1012F000013B00F8013BF8D870470000B3BBD9B1FF
:10130000B2F5803F7DD2022A1ED98C46B1FBF2F1A4
:1013100002FB11C31B0443EA1043B3FBF2FC02FBC4
:101320001C3380B240EA0343B3FBF2F002FB1032FD
:1013300040EA0C4000237047022A05D98446B0FBDE
:10134000F2F002FB10C270474AB105D100F0010271
:1013500049085FEA3000704700220023704700F020
:10136000A7BC0B000200002100207047904271EBE7
:10137000030CF6D3B3F5803F2FD2F0B5B3FA83F761
:10138000B1FA81F4A7F10F0E3D1B5340CEF12006B8
:1013900002FA0EF2F3415340B5F10F0746D80F3C65
:1013A0002C444140C4F12006A040F1414140B1FB32
:1013B000F3F603FB1611A2FB0645001BA94102D25E
:1013C000761E8018594180EA010221FA0EF362FA72
:1013D0000EF200215A403046F0BD30B4B1FBF3FCB0
:1013E00003FB1C11A2FB0C45001BA94103D2ACF16D
:1013F000010C8018594130BC02460B466046002162
:101400007047B2F1807F65D3F0B5B2FA82F7B1FAD6
:1014100081F4C7F10F063D1B22FA06F307F1110E06
:10142000F24120355A40B5F10F07B8D94140C4F117
:101430002006A040F1414140B1FBF3FC03FB1C112D
:10144000A2FB0C45001BA94103D2BCF1010C801882
:1014500059410F2F12D30F3FC90341EA5041B1FB4D
:10146000F3F603FB1611A2FB0645D4EBC030A941ED
:1014700002D2761E8018594146EACC3C07B341405F
:10148000C7F12006B840F1414140B1FBF3F603FB40
:101490001611A2FB0645001BA94102D2761E801838
:1014A000594180EA010221FA0EF3C7F1200462FAE1
:1014B0000EF20CFA07F05A402CFA04F13043F0BD5A
:1014C00080EA010221FA0EF3002162FA0EF2604670
:1014D0005A40F0BD8C46B1FBF2F102FB11C31B0276
:1014E00043EA1063B3FBF2FC02FB1C331B024CEA21
:1014F000002043EA1063B3FBF2FC02FB1C331B0227
:101500004CEA002043EA1063B3FBF2FC02FB1C33FD
:101510001B024CEA002043EA1063B3FBF2FC02FB1F
:101520001C324CEA0020002370470000B0B581EA6D
:10153000030C0CF0004C40F2FF7515EA11541DBF6E
:1015400015EA1357AC42AF4239E0E41923EA455398
:1015500043F48013C90241F0004141EA505EC702E2
:101560001100A7FB020200284FF00000EEFB012053
:101570004FF00001E3FB072118BF42F001024018C1
:1015800000214941E3FB0E01A4F580640F0302D260
:1015900052004041494154F101046CDD470872F1A9
:1015A000004250F1000051EB0451A1F580115CBFE5
:1015B00041EA0C01B0BD4CEA05510020B0BD05EA7E
:1015C0001357AC4214BFAF4241E050EA410E1CBF7A
:1015D00052EA430E02E061460020B0BD24423C4482
:1015E0001BD15FEA070EF6D0090302BF01460020B7
:1015F000AEF1140EB1FA81F7AEEB070401FA07FE63
:101600000C37C7F1200100FA07F7C8404EEA000E78
:1016100023EA455343F48013A2E733F00043B3FABF
:1016200083F704BFB2FA82FE77440B3FE41BB7F1A5
:10163000200E2FBF02FA0EF3BB40C7F1200E22FA94
:101640000EFE38BF43EA0E03BA40641C82E750EA3C
:10165000410E14BF52EA430E6FF000014FF4001721
:1016600017EB430F8ABF194617EB410FB5E74CEA5A
:1016700005510020B0BDD4F10104B4F120070FDA08
:10168000C4F12007520828BF42F0010210FA07F502
:1016900001FA07F7E1BF2A43E0403843E1400FE099
:1016A000352C98DCC7F1200452EA400220FA07F2F8
:1016B00018BF42F0010231FA07F0A1400A430021AD
:1016C00072F1004250F1000051EB0C01B0BD00007E
:1016D00010B5144600F002F8226010BDC1F30A53A1
:1016E00043B14A0012F5001F28D2A3F2FE32A1EB4B
:1016F0000251704750EA410C20D001F0004C31EA11
:101700000C01B1FA81F204BFB0FA80F3D2180B3A9F
:10171000B2F120032CBF00FA03F1914041EA0C0121
:101720003EBFC2F1200C20FA0CF319439040524204
:1017300040F2FD33D21A01EB03517047002270478B
:101740004FF4001C1CEB410F94BF1CEB430F09E04E
:1017500041EA030C50EA4C0C52EA0C0C03D29942B9
:1017600008BF9042704714BF8B428242704700000E
:101770004FF4001C1CEB410F94BF1CEB430F09E01E
:1017800041EA030C50EA4C0C52EA0C0C03D28B4297
:1017900008BF8242704714BF9942904270470000D0
:1017A000124254D440F2FF7C1CEA11530FD063451F
:1017B00031D09B1863453CBF01EB0251704701F0EB
:1017C000004141EA0C510020AFF30080704750EA1D
:1017D000410320D001F0004C91EA0C011CD0B1FA79
:1017E00081F30B3B9A420DD9D21A994051EA0C0170
:1017F000C3F1200C20FA0CFC61449840531C40F2C9
:10180000FF7CD7E7914041EA0C01C2F1200C20FA9D
:101810000CF3194390407047B0FA80F31533202B36
:10182000E0D3202AEED3203A203B9A4209D9D21A9B
:1018300000FA03F141EA0C010020531C40F2FF7C46
:10184000B8E700FA02F141EA0C0100207047524269
:1018500040F2FF7C1CEA11530DD06345DBD0B2EBA4
:10186000030C3CBFA1EB025170470CF1010221EACD
:10187000035141F4801150EA410CCCD001F0004CEE
:10188000352A27DC30B481EA0C01B2F1200309DAF1
:10189000C2F12003044601FA03F5D0402843D140A9
:1018A0009C400CE0C3F12002450020FA03F418BF6D
:1018B00044F0010421FA03F091400C43002174F13B
:1018C000004550F1000051EB0C01244230BC7FF484
:1018D0007BAF70476146002076E70000C1F30A53F2
:1018E00040F2FE329B1A14DDD3F120034FEAE1727D
:1018F00008DDC90241EA505141F00040D84080184B
:101900005040704703F2E13010B1D24382F0004002
:101910007047002070470000C11768B14840401A66
:10192000B0FA80F29040D21CC907C2F5846241EA45
:10193000025202EBD02140057047000070B44FF016
:10194000004591EA030F40F1B5816B40841A71EBB9
:10195000030603D2001BB141121973414FF4001C5E
:101960001CEB410F34BF7CEB430442E00C0DA4EBB5
:101970001356352E4FDC45EAC323DB0A45EAC12165
:10198000C912B6F120050DDD63FA05F6EB4086EAD3
:101990000305124218BF45F00105C01851F10001BE
:1019A0000CD213E062FA06F5F2405540F3415A407A
:1019B000B340F3405A408018594107D349085FEAC1
:1019C00030005FEA350528BF45F0010501F58011BB
:1019D000420875F1004250F1000041EB04514E0005
:1019E00016F5001F70BC38BF70470020090D0905AF
:1019F00070471CEB410F10D252EA43060BD0BCEBF0
:101A0000410F05D80C0DAB43661E342EB6DD02E047
:101A1000AB438018594170BC704770BC70470000E0
:101A2000F0B540F2FF7581EA030C0CF0004C15EAAA
:101A300011541DBF15EA1357AC42AF42E5E0BC415B
:101A4000C1F31301C3F31303801A994143F48013C4
:101A500004D2641E4000494180185941C90241EA3C
:101A60005051B1FBF3F603FB1611A2FB0675D7EB41
:101A7000C020A94102D2761E80185941C90241EA0C
:101A80005051B1FBF3FE03FB1E11A2FB0E75D7EB09
:101A9000C020A94103D2AEF1010E8018594189023C
:101AA00041EA9051760546EA8E2EB1FBF3F603FB30
:101AB0001611A2FB0675D7EB8020A94102D2761E33
:101AC00080185941C90241EA50514EEA060EB1FB55
:101AD000F3F603FB1611A2FB0675D7EBC020A94154
:101AE00002D2761E80185941C90241EA5051B1FB19
:101AF000F3F703FB1711A2FB0735D3EBC020A94175
:101B000067F100070CBF004247F0010766F3D527D5
:101B10004FEA1E31B80814F5806412DDBD0775F177
:101B2000004250EB0E5051EB045111F5801F5CBF89
:101B300041EA0C01F0BD4CF07F6141F0E041002032
:101B4000F0BDBD076D0840EA0E5041F48011D4F19C
:101B50000104B4F120060ADAC4F120060200E040D4
:101B600001FA06F3E1401843B24015430EE0342C6D
:101B700013DCC6F1200445EA40056D0820FA06F2A0
:101B8000154321FA06F0A1400D43002175F10042F2
:101B900050F1000051EB0C01F0BD00205FEA0C0198
:101BA000F0BDCFB992185B41B3FA83F704BFB2FA24
:101BB00082F6BF190B3FB7F120062FBF02FA06F3DA
:101BC000BB40C7F1200622FA06F638BF3343BA40BD
:101BD0001CB1E419641E33E77F4231F00041B1FAD1
:101BE00081F404BFB0FA80F6A4190B3CB4F12006CE
:101BF0002FBF00FA06F1A140C4F1200620FA06F634
:101C000038BF3143A0403C1B1AE7AC421ABF05EA7B
:101C10001357AF4212E050EA41061CBF52EA430696
:101C2000BFE750EA4107304661461CBF41EA055113
:101C3000F0BD52EA430C08BFC143F0BD00204FF491
:101C4000001616EB410F98BF16EB430F08BF16EBBB
:101C5000410F24BFC14305E016EB430F0CBF6146A3
:101C60004CEA0551F0BD0000400D491840EA8120C2
:101C70000CD2490DA1F58061491C40F0004005DB04
:101C8000D1F11F0154BFC840C017704700207047F2
:101C9000014648B1B0FA80F18840C91CC1F58461A1
:101CA000090501EBD02140057047012000F0B6B8CE
:101CB00070470000841A71EB030604D26E40001BCB
:101CC000B141121973414FF4001C1CEB410F34BF9A
:101CD0007CEB430682E00C0DA4EB1356362E7BDC26
:101CE000012E45EAC32341DC43EA525312BFD2021C
:101CF00092025B08240545EAC12141EA5051D2EB2A
:101D0000C020994125D407D1B0FA80F610FA06F127
:101D100062D00020203608E0B1FA81F6B140C6F169
:101D2000200220FA02F21143B0404FEAF474B4EBFF
:101D3000465434F001064FEA74040AD8D6F500166A
:101D4000760D04F00044F04061FA06F25040F14094
:101D50004840C00A40EA415021F0004128BF5FEAF4
:101D6000500550F1000044EBD12135E0DB0A45EA93
:101D7000C121C90AB6F120050EDD42EA0242120C69
:101D8000C5F1200603FA06F6EB4042EA06056D426D
:101D9000984161F100010DE062FA06F5F24055400C
:101DA00063FA06FC82EA0C02F3405A406D4290410D
:101DB00061EB030111F4801F05D1641E620502D09E
:101DC0006D004041494121F48011430875F1004301
:101DD00050F1000041EB045170BC70471CEB410F07
:101DE00015D223F0004352EA43060BD04FEA4C0CC5
:101DF000BCEB410F04D80C0D661E342EB7DDEBE7AB
:101E0000801A994150EA410608BF0021E4E708BF63
:101E10001CEB430F28BF6FF00001DDE780B5AFF387
:101E20000080024A11001820ABBEFBE7260002002A
:101E30007CB5040000202078C00740F18480DFF8E2
:101E40008806006810F00C0004280BD0DFF8780634
:101E5000006810F00C0008280ED1DFF86C0600684E
:101E6000C00309D5DFF85C06006880036BD56068A5
:101E7000002868D1012002E26068B0F5803F08D1F7
:101E8000DFF84006006850F48030DFF8381608604C
:101E900038E06068002810D1DFF82806006830F4C8
:101EA0008030DFF820160860DFF81806006830F48C
:101EB0008020DFF81016086024E06068B0F5A02FDD
:101EC00010D1DFF80006006850F48020DFF8F41528
:101ED0000860DFF8F005006850F48030DFF8E415A2
:101EE00008600FE0DFF8DC05006830F48030DFF8D0
:101EF000D4150860DFF8CC05006830F48020DFF8E6
:101F0000C4150860606800280ED000F0FDFA0500D6
:101F1000DFF8B0050068800315D400F0F5FA401B27
:101F20006528F5D30320AAE100F0EEFA0500DFF8FA
:101F300094050068800306D500F0E6FA401B65288A
:101F4000F5D303209BE12078800726D5DFF87805BC
:101F5000006810F00C0F0BD0DFF86C05006810F073
:101F60000C00082833D1DFF860050068C0032ED4C8
:101F7000DFF850050068800704D52069012801D0EA
:101F800001207CE1DFF83C05006830F0F800616971
:101F900050EAC100DFF82C150860207800074ED504
:101FA000A069002800F081800120DFF82C1508606E
:101FB00000F0AAFA0500DFF81C05006880073BD492
:101FC00000F0A2FA401B0328F5D3032057E1206953
:101FD00000281ED00120DFF80415086000F094FAF4
:101FE0000500DFF8E0040068800706D400F08CFAF2
:101FF000401B0328F5D3032041E1DFF8C804006843
:1020000030F0F800616950EAC100DFF8B8140860E8
:10201000C3E70020DFF8C414086000F075FA05007B
:10202000DFF8A00400688007B7D500F06DFA401B08
:102030000328F5D3032022E1012000F02FFA2078B5
:10204000400740F1B9800025DFF894040068C00023
:102050000FD4DFF88C04006850F08050DFF8801453
:102060000860DFF87C04006810F080500090009851
:102070000125DFF870040068C00529D4DFF8640486
:10208000006850F48070DFF85C14086000F03CFADF
:102090000600DFF850040068C00519D400F034FAD7
:1020A000801B6528F5D30320E9E00020DFF8281421
:1020B000086000F029FA0500DFF8180400688007BE
:1020C000BDD500F021FA401B0328F5D30320D6E04C
:1020D000E068012808D1DFF81004006850F0010022
:1020E000DFF80414086037E0E068002810D1DFF85A
:1020F000F803006840084000DFF8EC130860DFF8E0
:10210000E803006830F00400DFF8DC13086023E027
:10211000E068052810D1DFF8D003006850F0040013
:10212000DFF8C4130860DFF8C003006850F0010056
:10213000DFF8B41308600FE0DFF8AC030068400874
:102140004000DFF8A4130860DFF89C03006830F05B
:102150000400DFF894130860E068002810D000F055
:10216000D3F90600DFF880030068800719D400F077
:10217000CBF9801B41F289318842F3D303207EE002
:1021800000F0C2F90600DFF860030068800708D598
:1021900000F0BAF9801B41F289318842F3D3032061
:1021A0006DE0EDB2012D07D1DFF83403006830F0A7
:1021B0008050DFF82C130860E06900285ED0DFF85B
:1021C0000803006810F00C00082855D0E0690228C8
:1021D0003FD10020DFF81413086000F095F90500E6
:1021E000DFF8E0020068800106D500F08DF9401BA1
:1021F0000328F5D3032042E0206AB0F5803F09D1DF
:10220000DFF8C402016831F40031A0680143DFF84F
:10221000B8020160DFF8B002016831F47411206A7D
:102220000143606A0143DFF8A00201600120DFF88A
:10223000BC12086000F068F90400DFF8880200684A
:1022400080011BD400F060F9001B0328F5D30320A4
:1022500015E00020DFF89412086000F055F9040042
:10226000DFF860020068800108D500F04DF9001B1E
:102270000328F5D3032002E0012000E0002076BD12
:1022800070B504000D000020DFF86402006810F053
:102290000700A84211D2DFF858020068C008C00049
:1022A0002843DFF84C120860DFF84402006810F0A1
:1022B0000700A84201D00120A4E02078800709D5BA
:1022C000DFF80402016831F0F001A0680143DFF893
:1022D000F80101602078C00759D56068012806D14F
:1022E000DFF8E0010068800312D401208AE0606812
:1022F000022806D1DFF8CC010068800108D4012053
:1023000080E0DFF8C0010068800701D4012079E097
:10231000DFF8B40101688908890060680143DFF8CB
:10232000A801016000F0F0F80600606801280ED1F5
:102330006548006810F00C00042828D000F0E4F88C
:10234000801B41F289318842F2D303205AE0606851
:1023500002280ED15C48006810F00C00082816D046
:1023600000F0D2F8801B41F289318842F2D3032079
:1023700048E05548006810F00C0F08D000F0C4F891
:10238000801B41F289318842F3D303203AE0584858
:10239000006810F0070085420ED255480068C0085A
:1023A000C0002843524908605148006810F00700F7
:1023B000A84201D0012025E02078400707D54248F7
:1023C000016831F4E061E06801433F480160207832
:1023D000000708D53C48006830F46050216950EA95
:1023E000C1003949086000F00EF84249364A1268C7
:1023F000C2F30312895CC84035490860002000F030
:1024000089F8002070BD00B585B001A83A491022B6
:10241000FEF730FF39480088ADF8000000200020AA
:102420000020002000202848016811F00C0004283A
:1024300002D0082802D015E0244814E001A8C1F316
:102440008342805CC9030AD569461F4A1268C2F3F9
:1024500040428A5C1D494843B0FBF2F001E0284944
:10246000484300E0194805B000BD194800687047AE
:1024700080B5FFF7FAFF2349134A1268C2F302221C
:10248000895CC84002BD80B5FFF7EFFF1D490E4AC9
:102490001268C2F3C222895CC84002BD81B00C49F7
:1024A0000968C9084FF47A72B1FBF2F14843009011
:1024B00000BF0098411E00910028F9D101B070477B
:1024C00000000000001002400410024000127A00D8
:1024D00004000020241002408004424200004242D6
:1024E0001C10024000700040201002406000424278
:1024F00000200240F4370008E43700087211000899
:1025000000093D003438000801480068704700BFEA
:102510006C01002010B504004FF47A700D49097861
:10252000B0FBF1F00C490968B1FBF0F000F088F85D
:10253000002801D001200CE0102C09D2002221003B
:102540005FF0FF3000F06BF804480460002000E00A
:10255000012010BDD0000020040000200000002059
:1025600010F0070040490A684FF6FF010A403F4952
:1025700051EA00210A433C48026070473A4800682B
:10258000C0F302207047020052B2002A08D50901A8
:10259000374A40B210F00F00104400F8041C03E06A
:1025A0000901344A40B21154704710B410F00700CA
:1025B000D0F10703052B01D3042301E0D0F1070379
:1025C000041D072C01D2002000E0C01E012414FAD3
:1025D00003F35B1E19408140012313FA00F0401EF3
:1025E0001040084310BC704780B5411EB1F1807F98
:1025F00001D301200EE0401E1F4908600F215FF04B
:10260000FF30FFF7C0FF00201C49086007201C496D
:102610000860002002BD80B5FFF7A2FF01BD70B5C4
:1026200004000D0016000020FFF7A8FF320029006B
:10263000FFF7BBFF0100200040B2FFF7A4FF70BD11
:1026400080B5FFF7D1FF02BD042806D10C48006811
:1026500050F004000A49086005E00948006830F0BD
:1026600004000749086070470CED00E00000FA051F
:1026700018ED00E000E400E014E000E018E000E005
:1026800010E000E080B500F001F801BD70470000E7
:1026900010B50400002C01D1012033E0A06900280E
:1026A000FFD194F83900002805D1002084F83800C3
:1026B000200000F0E6F9242084F839002068C06882
:1026C00030F400502168C860200000F0C0F8206895
:1026D000006930F49040216808612068406930F05A
:1026E0002A00216848612068C06850F400502168C1
:1026F000C8600020E063202084F83900202084F89E
:102700003A00002010BD2DE9FC4105000C00170027
:102710001E00002095F8390020285ED1002C03D03F
:10272000380080B2002801D1012057E095F8380028
:10273000012801D1022051E0012085F83800002055
:10274000E863212085F83900FFF7DEFE8046AF847C
:10275000EF8403E0207829684860641CE88C002836
:1027600028D0E88C401EE884A868B0F5805F16D1B8
:102770000096434600228021280000F031F800280E
:1027800001D003202AE02088C005C00D29684860D8
:102790002869002801D1A41CE0E7641CDEE700964C
:1027A000434600228021280000F01AF80028D1D0EA
:1027B000032013E00096434600224021280000F049
:1027C0000FF8002801D0032008E0202085F8390008
:1027D000002085F83800002000E00220BDE8F681E6
:1027E0002DE9F04105000E0090461F00069C286868
:1027F00000683040B04201D1012000E00020414695
:10280000C9B2884220D114F1010FF0D0002C04D0BD
:10281000FFF77AFEC01B8442E9D22868C06830F412
:10282000D0702968C860286840694008400029685D
:102830004861202085F83900202085F83A000020E2
:1028400085F83800032000E00020BDE8F0812DE984
:10285000F041040000212068026932F44052E0682F
:10286000024320680261A268206902436069024352
:1028700011432068C2685948024011432068C16072
:102880002068416931F44071A069014320684161C9
:102890002068534988424FD1FFF7F5FD8046FFF786
:1028A000F2FD0700FFF7EFFD0600FFF7ECFD050066
:1028B000FFF7E9FD192101FB08F861688900B8FB01
:1028C000F1F16422B1FBF2F219214F4361688900F2
:1028D000B7FBF1F319214E4361688900B6FBF1F1B2
:1028E0006426B1FBF6F6642101FB1633190132317F
:1028F0006423B1FBF3F313F0F00313EB021319217C
:102900004D4361688900B5FBF1F2192148436168C4
:102910008900B0FBF1F06421B0FBF1F1642000FB11
:102920001122100132306421B0FBF1F010F00F00E1
:10293000C318206883604EE0FFF79AFD8046FFF7DA
:1029400097FD0700FFF794FD0600FFF791FD0500D6
:10295000FFF78EFD192101FB08F861688900B8FBBB
:10296000F1F16422B1FBF2F219214F436168890051
:10297000B7FBF1F319214E4361688900B6FBF1F111
:102980006426B1FBF6F6642101FB163319013231DE
:102990006423B1FBF3F313F0F00313EB02131921DB
:1029A0004D4361688900B5FBF1F219214843616824
:1029B0008900B0FBF1F06421B0FBF1F1642000FB71
:1029C0001122100132306421B0FBF1F010F00F0041
:1029D000C31820688360BDE8F0810000F3E9FFFFC1
:1029E0000038014080B53C48006850F001003A4989
:1029F00008603948006810F00100009000983748DE
:102A0000006850F08050354908603448006810F084
:102A10008050009000980320FFF7FDFD0022002168
:102A20007FF00B00FFF7FBFD002200217FF00A0082
:102A3000FFF7F5FD002200217FF00900FFF7EFFD11
:102A4000002200217FF00400FFF7E9FD00220021B1
:102A50007FF00300FFF7E3FD002200217FF001007B
:102A6000FFF7DDFD002200215FF0FF30FFF7D7FD0B
:102A70001B48006830F0E06050F0007018490860B2
:102A800001BD00B585B000681649884221D11248C1
:102A9000006850F48040104908600F48006810F446
:102AA0008040009000984FF4007001900220029046
:102AB0000320049001A90C4800F018F84FF480603E
:102AC0000190002002900020039001A9064800F028
:102AD0000DF805B000BD0000181002401C100240A7
:102AE000040001400038014000080140F8B4020031
:102AF0000020002000200025002000231AE0DFF83D
:102B0000FC01006830EA0404DFF8F001046010E022
:102B1000DFF8EC010068A043DFF8E461306048684A
:102B20008002ECD5DFF8D40100680443DFF8CC0163
:102B300004605B1C102B80F0CB8001269E400C684B
:102B40003440B442F5D1486800282DD0012820D067
:102B5000022823D0032835D011281CD0122820D0D9
:102B6000DFF8A071B8421FD0DFF89C71B8421BD0CB
:102B7000DFF89871B84217D0DFF89471B84213D0DB
:102B8000DFF89071B8420FD0DFF88C71B8420BD0EB
:102B90001AE0CD6818E0CD682D1D15E0CD68083528
:102BA00012E0CD680C350FE08868002801D10425BB
:102BB00007E08868012802D10825166101E0082590
:102BC000566101E00025FFE7B4F5807F01D21000D7
:102BD00000E0101DB4F5807F01D29E0002E0B3F149
:102BE0000806B60007685FF00F0C1CFA06FC37EA0F
:102BF0000C0715FA06F63E4306604868C00098D5F3
:102C00004648006850F00100444E30604348006878
:102C100010F001000090009841481E00B60850F8DE
:102C200026600F2713F00300C0B280008740BE4328
:102C30003C48824201D1002719E03B48824201D141
:102C4000012714E03948824201D102270FE03848B9
:102C5000824201D103270AE03648824201D104278B
:102C600005E03548824201D1052700E0062713F030
:102C70000300C0B2800087403E4329481F00BF08C0
:102C800040F827604868C00305D52C4800682043F9
:102C90002A4E306004E029480068A043274E306087
:102CA0004868800305D5264800682043244E3060DC
:102CB00004E023480068A043214E30604868C00209
:102CC0007FF526AF0E48006820430D4E306026E7A2
:102CD000F1BC7047806889B2084201D0012000E051
:102CE0000020C0B27047D2B2002A02D089B201617E
:102CF00002E089B209040161704700000C04014040
:102D00000804014000001110000012100000211002
:102D10000000221000003110000032101810024094
:102D20000800014000080140000C01400010014073
:102D30000014014000180140001C01400004014043
:102D40000404014001B54FF6FF73012269467C4837
:102D5000FFF7D9FC009802BD1FB56846794991E894
:102D60001C0080E81C0000F005F900F048F800F0B5
:102D7000A4F800F07EF80122C121802000F082F941
:102D8000714800F00BF90222C121802000F07AF98D
:102D90006D4800F003F90122C121802000F072F992
:102DA000694800F0FBF8012000F0D6F96749086097
:102DB0006648006800F008FA02000B00644800F062
:102DC00027FA614800F0EAF8022000F0C5F96149ED
:102DD00008606048006800F0F7F902000B005C48EA
:102DE00000F016FA0121072000F0E2F85A490870B5
:102DF0000221072000F0DCF858490870D0E700B540
:102E00008FB0012005905FF48030069000200C9078
:102E100005A8FFF70DF8002803D0A221504800F0C4
:102E2000A7F80F20009001200190002002904FF49D
:102E3000806003900020049000216846FFF720FA8C
:102E4000002803D0B021464800F092F8FFF70DFBB0
:102E50004FF47A71B0FBF1F0FFF7F2FB0420FFF7BB
:102E6000F3FB002200215FF0FF30FFF7D8FB0FB02B
:102E700000BD80B53B48324908604FF416503049D8
:102E8000486000202E49886000202D49C86000203D
:102E90002B4908610C202A49486100202849886193
:102EA00000202749C8612648FFF7F2FB002803D01D
:102EB000CD212B4800F05CF801BD00B585B02A4853
:102EC000006850F02000284908602748006810F08A
:102ED0002000009000982448006850F0100022491B
:102EE00008602148006810F01000009000981E480B
:102EF000006850F004001C4908601B48006810F08E
:102F000004000090009801223C211848FFF7EBFED6
:102F100003200190002002900120039001A9134892
:102F2000FFF7E4FD3C200190012002900020039077
:102F30000320049001A90D48FFF7D8FD05B000BD9E
:102F40002401002014380008FFFF01006401002064
:102F50002C38000868010020740100207501002051
:102F60005836000800380140181002400010014097
:102F7000FEE7000080B50848006850F010000649E0
:102F800008600320FFF747FB0020FFF7C3FAFFF7B5
:102F900029FD002002BD00000020024001B402E033
:102FA0000098401E009000980028F9D101B07047A9
:102FB00070B5050000240020C9B2012905D1002206
:102FC00010217C48FFF78FFE04E000222021794881
:102FD000FFF789FE1F20FFF7E1FF00261EE0002219
:102FE00004217448FFF77FFE0BE00122082171489D
:102FF000FFF779FE2806F2D5012204216D48FFF77C
:1030000072FE1F20FFF7CAFF002208216948FFF760
:103010006AFE6D001F20FFF7C1FF761C3000C0B2B2
:103020000828E2DB00201F20FFF7B8FF002518E08A
:10303000012208215F48FFF756FE64001F20FFF7BA
:10304000ADFF01215B48FFF745FE002800D0641C5E
:10305000002208215748FFF746FE1F20FFF79EFF7A
:103060006D1C2800C0B20828E2DB01221021514863
:10307000FFF739FE012220214E48FFF734FE2000E1
:10308000C0B270BD70B505000C000020D2B2012A9C
:1030900005D1002210214748FFF725FE04E0002259
:1030A00020214448FFF71FFE1F20FFF777FF00266F
:1030B0001EE0002204213F48FFF715FE0BE001222D
:1030C00008213C48FFF70FFE2806F2D50122042113
:1030D0003848FFF708FE1F20FFF760FF0022082195
:1030E0003448FFF700FE6D001F20FFF757FF761CE6
:1030F0003000C0B20828E2DB00251EE000220421D7
:103100002C48FFF7F0FD0BE0012208212948FFF7CA
:10311000EAFD2006F2D5012204212648FFF7E3FD4F
:103120001F20FFF73BFF002208212248FFF7DBFDAD
:1031300064001F20FFF732FF6D1C2800C0B2082872
:10314000E2DB012210211B48FFF7CDFD01222021E7
:103150001848FFF7C8FD70BD38B5040000202100F5
:10316000C9B20120FFF724FF05002100C9B20220E7
:10317000FFF71EFF80214D4380B2022190FBF1F04A
:10318000ADB280B24519280000F056F80A4900F0A7
:1031900065F85FF08E4100F0CDF8084900F048F97D
:1031A00000F012F8064A074BFEF73AFC00F0B2F9BD
:1031B00032BD0000001001400000D7430000C8C22B
:1031C00069520ABABDA4D83FC0F3C75181B1FF29E3
:1031D00006D0C110400721F0E04101F16051704775
:1031E00041020CBF40F4E0016FF000410020704745
:1031F00000F0004100020AD0B0FA80FC00FA0CF0A6
:1032000001F16051A1EB0C5101EBD0214005704759
:103210000EB4C0B5024603A800210190009101AB95
:103220000121044878440C30FCF782FF06BC5DF8AD
:1032300010FB00BF8D050000C2175040801AB0FA85
:1032400080F10AD08840D1F19D01D20742EAC151F4
:10325000020672F1004241EB10207047FF2212EA91
:10326000D05C1DBF12EAD153944593422BE09C449D
:10327000D30780EA01021A4043EA002043EA012111
:10328000A1FB0030C04238BF40007CF17F010BDB66
:10329000FE294ADA5B0842EAC15153EA006373F13E
:1032A000004C51EB10207047D1F1080CDCF12001EB
:1032B0002FDB5B0810FA01F10B4320FA0CF073F1DD
:1032C00000415041704794451CBF02EAD1539342DC
:1032D00080EA010202F000421DD0400019D04900EE
:1032E00017D05BB9634514D00902B1FA81F3994054
:1032F000BCEB030CC00140F00040C1E70002B0FA93
:1033000080FC10FA0CF0B3EB0C0CC90141F0004149
:10331000B6E71000704740000AD0490008D010F10D
:10332000807F94BF11F1807F02E042F0FF40704740
:10333000D043704710B5FF2313EAD0541DBF13EAE2
:10334000D1529C429A4239E0A41ADA0780EA01037A
:10335000134042EA012142EA0020421A3CBF641EA7
:1033600001EB4202090AB2FBF1FE01FB1E2212022E
:10337000B2FBF1F001FB10226EF30F201202B2FB40
:10338000F1FE4EEA00207F3406DDFE2C24DA53EAFB
:10339000500050EBC45010BDD4F1020401FB1E22BA
:1033A00040F08071192C1DDC21FA04F0C4F12004D6
:1033B000A140114371F10042584110BD9C421ABF17
:1033C00003EAD1529A420FE080EA010E0EF0004368
:1033D000400004D0490016D143F0FF4010BD490021
:1033E00008BFD343180010BD9C4205D1D21AF7D0B4
:1033F00001F00041484010BD4A0212BF0846484053
:1034000000F0004010BD4AB90902B1FA81F29140C2
:1034100044B1A418C00140F000409EE7C90141F04A
:10342000004152420002B0FA80F4A040141B94E71D
:1034300090EA010F40F1A28081F00041431A4FF061
:1034400000423EBF5340C01AC91800BFD3095FEA0B
:10345000D05C13EB400F34BFB3EB410F40E07CEB8B
:10346000D1530CD342EA012122D8D1EB402009D319
:10347000400A28BF5FEA500140EBCC507047401A29
:1034800015D04002B0FA80F2521C9040400A4FEA38
:103490003C23B3EB026384BF00EB730007E040F40E
:1034A00000001A16DB07C2F10102D0401843704732
:1034B000182BFCDC31FA03F202FA03F3591A38BF75
:1034C00042F00102D2EB40203CBF4000ACF1010CC5
:1034D0005FEACC5CC20572F100414CEB50207047B2
:1034E00013EB400F0FD2C94209D0ACEBD153022BE2
:1034F00003DB4902172BDDDD70479143401AC042C0
:10350000D5D10020704713EB410FD0D36FF00000EE
:103510007047000001F000428B1AA3F16051B1F531
:10352000801F0ADBB1F17F6F1FD242EAC102C100E6
:1035300071F1004142EB507070470B15C3F1090364
:10354000212B10D2890241EA905180020128494181
:1035500041F0004121FA03F0C3F12003994071F1D9
:10356000004150417047100070476FF0000013EBAE
:10357000103F5CBF000E42EAC0507047421A3CBF89
:10358000801A89184FF0004CC0F3C752FF2A24D08C
:10359000C1F3C75313B3D21AD2F1190327DD4CEA92
:1035A00001214CFA03F321EA0303D140C20D4CEA96
:1035B0000020401834BF20EA0C004CEA5000D2052D
:1035C00053EA006373EB0C0C52EB1020420012F133
:1035D000807F38BF7047C00DC0057047490212BFD9
:1035E0009A4200EB5120F8E7D2F11703D9D5704782
:1035F0001348006850F00100114908601148016843
:10360000114801400F4801600D4801680F48014012
:103610000B4801600A48006830F4802008490860BF
:103620000848006830F4FE00064908605FF41F0097
:10363000074908605FF000600649086070470000B5
:1036400000100240041002400000FFF8FFFFF6FEE9
:103650000810024008ED00E0433A5C557365727350
:103660005C475C4465736B746F705C636F6465206A
:103670007265706F5C74656D70207265706F5C68E8
:10368000616C5F73777370695C7370695C537263AC
:103690005C6D61696E2E630019E050F8042BD3074E
:1036A00044BFA9F101039A18091F0023042942F815
:1036B000043BF9D25FEA817C134604D54FF0000C3D
:1036C000A2F800C09B1CC90744BF0021197050F824
:1036D000041B0029E1D1704730B5016884684218A5
:1036E000416802EB5103C9070BD54C4409E012F9BC
:1036F000011B12F8015B002904F8015B05D5491C88
:10370000F9D19A42F3D10C3030BD491EF1D5F8E71A
:1037100010B5074979441831064C7C44163404E04E
:103720000A68081D114488470146A142F8D110BD1E
:10373000080000002400000061FFFFFFA40000005B
:10374000D40000200000000091FFFFFFE601000010
:10375000000100000000002000F00DF8002801D05A
:10376000FFF7D6FFAFF300800020AFF30080FFF734
:10377000F3FA00F002F80120704700F001B80000F1
:1037800007463846FEF74AFBFBE77047FEE7FEE7D1
:10379000FEE7FEE770477047704780B500F004F819
:1037A000FEF770FF01BD0000034801680348007880
:1037B00041180148016070476C010020D0000020D2
:1037C00038B504460D46284600F006F8A84218BF52
:1037D0000024204632BD00000149FFF7B3BA00BF04
:1037E0008800002002030405060708090A0B0C0DD7
:1037F0000E0F101000000000000000000102030482
:10380000060708090148804701480047F1350008CC
:10381000213800080001020304050607080900001A
:10382000AFF30080AFF30080FFF796FF252E3366DD
:103830000A000000000000000102030400002E0046
:103840004300FFF7FEBFFFF7FEBFFFF7FEBFFFF726
:10385000FEBFFFF7FEBFFFF7FEBFFFF7FEBFFFF79C
:10386000FEBFFFF7FEBFFFF7FEBFFFF7FEBFFFF78C
:10387000FEBFFFF7FEBFFFF7FEBFFFF7FEBFFFF77C
:10388000FEBFFFF7FEBFFFF7FEBFFFF7FEBFFFF76C
:10389000FEBFFFF7FEBFFFF7FEBFFFF7FEBFFFF75C
:1038A000FEBFFFF7FEBFFFF7FEBFFFF7FEBFFFF74C
:1038B000FEBFFFF7FEBFFFF7FEBFFFF7FEBFFFF73C
:1038C000FEBFFFF7FEBFFFF7FEBFFFF7FEBFFFF72C
:1038D000FEBFFFF7FEBFFFF7FEBFFFF7FEBFFFF71C
:1038E000FEBFFFF7FEBFFFF7FEBFFFF7FEBFFFF70C
:1038F000FEBFFFF7FEBFFFF7FEBFFFF7FEBFFFF7FC
:10390000FEBFFFF7FEBFFFF7FEBFFFF7FEBFFFF7EB
:10391000FEBFFFF7FEBFFFF7FEBFFFF7FEBFFFF7DB
:10392000FEBFFFF7FEBFFFF7FEBFFFF7FEBFFFF7CB
:10393000FEBF0010FC001EA24A043C3800083C38C0
:1039400000083C3800083C3800083C3800083C3887
:1039500000083C380008F8FF0B3E3800083C3800EF
:10396000083C380008FAFF0600004038000801FD56
:10397000000308000020D80003D9100008FC000450
:10398000C710000801F9001302040101D40000204F
:1039900024010020D4000020D4000020FC0003D427
:1039A000000020FC0007CC000020B8000020E00050
:0239B000000114
:040000050800382196
:00000001FF
