:020000040800F2
:10000000B805002065420008B1260008B3260008A4
:10001000B5260008B7260008B92600080000000031
:10002000000000000000000000000000BB260008E7
:10003000BD26000800000000BF260008C1260008F9
:10004000AF420008B3420008B7420008BB420008B4
:10005000BF420008C3420008C7420008CB42000864
:10006000CF420008D3420008D7420008DB42000814
:10007000DF420008E3420008E7420008EB420008C4
:10008000EF420008F3420008F7420008FB42000874
:10009000FF42000803430008074300080B43000821
:1000A0000F43000813430008174300081B430008D0
:1000B000CD2600081F4300082343000827430008FB
:1000C0002B4300082F430008334300083743000840
:1000D0003B4300083F4300084343000847430008F0
:1000E0004B4300084F4300085343000857430008A0
:1000F0005B4300085F430008634300086743000850
:100100006B4300086F4300087343000877430008FF
:100110007B4300087F4300088343000887430008AF
:100120008B4300088F43000893430008974300085F
:100130002DE9F84F0FF2D017A2B0D7E90045CDE96D
:1001400000452C9EDFF82C7C04918DF84360002143
:100150000FF2BC140D9112944FF0FF368246904678
:1001600099460FE0C3462C461BF8011B0498D04764
:100170000028049000F0B2800D98401C641E0D9081
:10018000F2D1A84498F80000252807D10021079152
:10019000089109910A910B910C910DE06A46314644
:1001A000404600F0CFFF050001D10D98B4E0D9D54D
:1001B0000125E6E741F0010118F8010F2028F9D0E8
:1001C00023280CD02B2804D02D2805D0302809D086
:1001D00086E041F00201EFE741F00401ECE741F075
:1001E0000801E9E741F01001E6E700200F900AE07E
:1001F0000F98B84205DA00EB800302EB4302303A75
:100200000F9208F1010898F80020A2F130000A28A6
:10021000EED398F800002E2818BF0E9629D118F8B2
:10022000010F2A280BD1D9F80000C9F8000008F105
:10023000010850F8042BC9F800000E9219E02D288F
:100240000CBF18F8010B002000220E920BE040B901
:100250000E9ABA4205DA02EB820403EB4403303B08
:100260000E9308F1010898F80030A3F130020A2A31
:10027000EDD3ADF84010129898F8001000F06EFF22
:1002800008B118F8010B8DF842009DF8420068286B
:1002900004BF98F80010682903D162208DF842004D
:1002A00008E06C2804BF98F800006C2804D1712184
:1002B0008DF8421008F1010813A806904A4618F874
:1002C000013B02A9504600F067F838B913AA02A909
:1002D000504600F0C9F900287FF554AF30461BE0C6
:1002E0002A2882D1D9F80020C9F8002052F8040B3E
:1002F000C9F8002000280F9003D540420F9041F02C
:10030000040108F1010884E700000000000000007B
:10031000686A6C747A4C000023B0BDE8F08F6228E4
:1003200020D0682811D06A2803D06C2827D07128E3
:1003300025D10868C01D20F007000860D0E900231F
:1003400008300860194610467047002A0A680A609B
:10035000106803D0121D0A6000B217E0121D0A6077
:1003600080B217E0002A0A680A60106803D0121DE4
:100370000A6040B20AE0121D0A60C0B20AE0002A18
:100380000A680A60106803D0121D0A60C11770471E
:10039000121D0A60002170477CB50D4611461C46AF
:1003A0002E69B4F1250200F04D811C3A00F08680E0
:1003B000121F022A40F282800E3A00F00781521F7B
:1003C0005AD0093A7AD0921E16D0521E35D0521EFB
:1003D000022A73D9121F30D0521F00F09A80521E89
:1003E0004AD0521E00F0E480D21E00F0FD80921E22
:1003F00042D0D21E40D02BE195F83A206C2A09D089
:100400006869421C6A610A680A6052F8043B0A6023
:10041000335427E10A680A6052F8043B0A6000215D
:10042000009301914FF0FF322A6329466A4600F09B
:1004300096F9002840F1168101E195F83A00012271
:10044000FFF76DFFC5E900010023994204DA6869EE
:10045000411C69612D210DE0288F810704D5686951
:10046000411C69612B2105E0C00722D56869411C48
:100470006961202131541CE095F83A000022FFF711
:100480004EFFC5E9000195F83800010711D5D5E9FF
:1004900000230020834208BF82420AD044F020009B
:1004A000782806D1686930213154401C411C6961AB
:1004B0003454214668693044E86083E00868C01D10
:1004C00020F007000860D0E9002308300860C5E983
:1004D0000023D5E90001C80F04D06869411C696197
:1004E0002D210DE0288F810704D56869411C6961C1
:1004F0002B2105E0C00704D56869411C69612021F2
:10050000315468693044E8602146284600F032FAE8
:10051000A8E005F13A02507820B14FF0FF340FF611
:10052000243070E01078622808D0682824D06A2827
:1005300012D06C282ED071280ED02BE00A680A60E9
:1005400052F8040B0A6020B94FF0FF340FF60C305C
:1005500059E0E96A017085E00A680A6052F8040B04
:100560000A6020B94FF0FF340FF6F0204BE0EA6A42
:10057000D317C0E9002375E00A680A6052F8040B3B
:100580000A6020B94FF0FF340FF6D0203BE0E96A53
:10059000018067E00A680A6052F8040B0A6020B91B
:1005A0004FF0FF340FF6B4202DE0E96A016059E006
:1005B0000A680A6052F8040B0A600021C5E90001CC
:1005C000EE607821284600F029F94BE06C2285F88E
:1005D0003A200B680B6053F8042B0B6052BB4FF0B2
:1005E000FF340FF6AC200EE095F83A206C2AF0D0DC
:1005F0000868086050F8044B0860EC603CB94FF0A4
:10060000FF340FF6702000F0B5FD201A76BD2E6B7A
:10061000002E04D5204600F0CFFD044608E0324607
:100620000021204600F0E4FD002814BF041B3446DE
:10063000AC6117E0294600F092F8002812D54FF07F
:10064000FF3076BD6869411C69612521315409E09C
:100650006969481C686125227254210002D0411C3E
:1006600069613454002076BD2DE9F0410E460546FF
:10067000716B7069B46A091A306A091AB069091A8B
:10068000706A091AF069091A96F838000C1B4107BC
:1006900090460DD4002C0BDD2746B0682021A847DA
:1006A0000028B06057D0F06A401C7F1EF062F4D181
:1006B000736942463146284600F0ACFC00284AD116
:1006C000376A002F0ADDB0683021A8470028B060E3
:1006D00041D0F06A401C7F1EF062F4D1B369F26829
:1006E0003146284600F096FCA8BB776A002F09DD4A
:1006F000B0683021A847B06068B3F06A401C7F1E24
:10070000F062F5D1F068B169F369421831462846C4
:1007100000F080FCF8B9B76A002F09DDB06830211D
:10072000A847B060B8B1F06A401C7F1EF062F5D1F6
:1007300096F8380041070BD5002C09DDB068202160
:10074000A847B06038B1F06A401C641EF062F5D171
:100750000020BDE8F0814FF0FF30BDE8F0812DE9C9
:10076000F8470D46A3B02F6B002F8146904648BF37
:100770006FF0004700F068FD696B40180FF62C1110
:100780008128D1E90023CDE9012328BF4FF0FF30B4
:100790003ED20024002F2FDDD8F8001001AA6846B1
:1007A00000F0D2FC0646002E35D4D8F8000008B977
:1007B000761E30D4B7421FDB6869301881280AD30F
:1007C0000020686303AA29464846FFF74DFF04004E
:1007D00012D40020686103A8D5F814A032466946F7
:1007E000504400F037FDB244C5F814A058F8040B8B
:1007F000002818BFBF1BCDD12CB903AA29464846F3
:10080000FFF732FF044614B9002068616863204690
:1008100024B0BDE8F0874FF0FF34F8E72DE9FC473E
:1008200007468A463E69BAF16F0F08BF082405D013
:100830004AF02001782914BF0A2410243C25D7E966
:100840000023BAF1640F18BFBAF1690F90469946B8
:1008500006D100218B4203DAD8F1000869EB49097F
:100860000020814508BF80451FD1386BE8B9082CAE
:100870004CD197F83800010748D530203B2586F841
:100880003B0043E000280ED597F8380000F0140034
:10089000102808D17A6B7869121A386A121A511A1C
:1008A0000029C8BF3962BDE8F3878DF800A0404633
:1008B00049462246E31700F021FD3032D0B26D1ECA
:1008C0003A28019504DB9DF80000A0F151018A1837
:1008D0007255404649462246E31700F00FFD804618
:1008E00089460020814508BF804503D0F86871190A
:1008F0008842DCD3082C09D197F83800010705D5C8
:10090000715D302902D06D1E30207055C5F13C015B
:10091000B9617019F860386B8142B3DA411A3962F3
:100920004FF6EF70398F01403987BDE8F3872DE925
:10093000D04306460F4614464FF00008DFF83894BF
:1009400012E0E00707D542464B463046394600F0F4
:10095000EDFD06460F464046494642464B4600F0EE
:10096000E5FD641080468946002CEAD130463946C0
:10097000BDE8D0832DE9F34F054641F020048DB04A
:10098000D5E90089612C02AE09D0286B002848BF48
:10099000062003D408BF672C01D101202863D5E9C4
:1009A000002358004015401C0ED119030CD0032021
:1009B000A8619DF8380061381A2802D20FF2F4615C
:1009C00011E00FF2F4610EE058004015401C0FD109
:1009D00019030DD10320A8619DF8380061381A2849
:1009E00014D30FF2DC61E868032200F033FCD3E19A
:1009F000194621F00043B3F5801F10460DD20027A1
:100A0000BB4208BFBA42019703D111E00FF2AC61BB
:100A1000E9E701AA00F05CFE0AE0DFF8607307EB8B
:100A20001352DFF85C3301921940DFF85833194351
:100A3000C5E90001612C0ED1E86830210170811CEC
:100A4000E9609DF8381061290CBF78215821417068
:100A50006869801C6861D5E900AB2BF00043002079
:100A60002AF00002834204BF8242002300F05A8130
:100A7000612C40F0A980286B00284CBF2120401C2D
:100A800000904046009F7F1C49460022002300F052
:100A900057FED94601988DF8082038BF89F00049E3
:100AA000001F0190002FD0460DF1090040F349814D
:100AB00040F2FF71DFF8D0B20C910646404649463D
:100AC0000022002300F054FE80F03A814800400DDF
:100AD00000F11C0210D0002A0EDD0C98824205DBCA
:100AE00009F0004040EA0B01002013E0A448084050
:100AF00040EA025140460DE029F00043002028F072
:100B00000002834208BF82420FBF40461C2240467B
:100B100000F046FE8046894600F0E0FEFF1F002FF1
:100B2000044609DD00F0F8FE02460B464046494601
:100B300000F004FF80468946F01D072104E004F020
:100B40000F0200F8012D2411002C01DD491EF6D5FD
:100B5000491E5CBF002200F8012DF9D5ECE0002011
:100B6000194602AA0A4400E05B1E12F80149491E18
:100B70008442F9D00F2804D10DF10900425C521CC7
:100B80004254002904D50198001D02AE5B1C01905F
:100B9000591E12D49DF838007218147804F13008E8
:100BA0005FFA88F4392CC4BFA0F13A04A044491E6E
:100BB00002F80189F1D58DF83800286B002840F142
:100BC000B080591E2963ACE040464946002200230C
:100BD00000F0B6FD019938BF89F0004947F29750FF
:100BE00041436A4A91FBF2F20192D2F1070204DD1D
:100BF00040464946FFF79BFE0AE052420020644906
:100C0000FFF795FE02460B464046494600F008FFB6
:100C10008046662C286BDFF87CB106BF019F0A373F
:100C200006273F18142FC8BF142730208DF808005E
:100C300089460DF1090000E03046002F34DD0646FC
:100C40004046494601F010F801460A4606F10803FD
:100C500004200A26B2FBF6F606EB860EA2EB4E0245
:100C6000303203F8012C0A22B6FBF2F202EB820EBC
:100C7000A6EB4E063036401E03F8026DE9D1083F60
:100C8000002F03F10806D7DD084601F001F80246FF
:100C90000B464046494600F051FE00225B4600F0FC
:100CA00045FC80468946CBE70DF10901401A0DF15C
:100CB000090604E00199491E401E0191761C317815
:100CC0003029F7D0662C02D10199491C03E0652C2C
:100CD0000CBF012100212B6BCB189842B8BF431EDB
:100CE000002B1ED4834204DAF05C3528A8BF3920DB
:100CF00000DA30201946721E02EB010800E05B1E8C
:100D000018F80199491E8145F9D0392802D1705C43
:100D1000401C7054002904D50198401C16465B1CE9
:100D20000190019800B200901BB29DF83810324635
:100D3000284600F034F82FE0C61D002F3FF7BEAE66
:100D400030460DF10901401A009903468842C8BF98
:100D50000B46002B0DF109063FF52FAF8342BFF67E
:100D6000FEAE0DF10900C05C07287FF7F8AE0F203A
:100D7000F6E60000CBCCCC0C0000244002FCFFFFC8
:100D8000FFFF0F800000E03F0000F07FA086010021
:100D90000000F03F84D797410FB0BDE8F08F2DE9F8
:100DA000F84783B006468A461746984600F0CEF9C3
:100DB000B8F1000F406A356B90F8009003DC4FF0FB
:100DC00001080FF20037BDF930404AF020006628D4
:100DD00008BF641C15D0672840F0848014F1040F0C
:100DE000C0F28680AC4280F2838096F83800641CA2
:100DF000010702D4A845B8BF454620B22D1A48BF06
:100E000000250FFA84FAF068B169BAF1000F25DC09
:100E10004A1C30234354002D03DC96F838000107A8
:100E200003D5F06800F80290521C15EB0A0FB8BF0A
:100E30006C4220B2441941424445B8BFA046B26159
:100E400071620FFA88F5F561F068B3692A46394690
:100E5000184400F0FFF9641BB462C4E022B290456C
:100E6000084417DA4246394600F0F4F9B0694044C4
:100E7000B061AAEB0801002D716203DC96F838100E
:100E80000A0705D5F16801F80090F069401CF0618F
:100E9000B562A8E0394600F0DDF9B069002D504494
:100EA000A8EB040803DC96F838100A0703D5F168AC
:100EB00001F80090401CB0610FFA88F08542F0689C
:100EC000B369B8BFA8460FFA88F207EB0A011844C5
:100ED00000F0C0F9B0690FFA88F10844B061681AEF
:100EE000706280E0BAF1610F14D14FF0700A16E021
:100EF000A84504DA96F838100A0758BF45466D1E13
:100F000048BF0025BAF1670F14BF4FF0450A4FF0F4
:100F1000650A04E0BAF1410F08BF4FF0500AB16909
:100F2000F368481CB061002D17F8012B5A5403DCFC
:100F300096F838100A071BD5F168431CB36101F815
:100F40000090002D14DDA8F101080FFA88F0854209
:100F5000F068B8BFA8460FFA88F23946184400F086
:100F600079F9B0690FFA88F108446D1AB0617562B9
:100F7000F068B1690844002C80F800A003D42B214C
:100F80004170811C03E02D2141706442811C0020CE
:100F90006A460AE023460A2493FBF4F404EB840532
:100FA000A3EB450302F8013B401C24B2002CF1DC0A
:100FB000012806DC4AF02002652A04BF302201F82D
:100FC000012B48B9302001F8010B07E0401E1DF845
:100FD0000020303201F8012B0028F7DCF068B269FC
:100FE0001044091AF16196F8380000F01400102836
:100FF0000DD17169B0694118706A4118F0694118E2
:10100000B06A4118706B8142BCBF411A316204B0B2
:10101000BDE8F087F8B505460E4617461C46002089
:1010200074B117F8011BB068A847B06030B1F06A1E
:10103000401CF0620020641EF3D1F2BD4FF0FF307F
:10104000F2BD00007072696E74665F733A20256E9F
:1010500020646973616C6C6F776564007072696E8F
:1010600074663A2062616420256E20617267756D36
:10107000656E74007072696E74665F733A206261A7
:101080006420257320617267756D656E74000000C1
:101090007072696E74665F733A2062616420256CB9
:1010A0007320617267756D656E740000000000004A
:1010B000000000006E616E004E414E00696E6600D9
:1010C000494E46003000B1F5807F02D34FF0FF302B
:1010D00070470170012070470078401E8041C04376
:1010E000C00F70471B48704730B45368D418042BA6
:1010F00009DA41B1057804F8015B10F8015B15B11C
:101100005B1C491EF3E7536030BC704738B514468A
:101110001D4661B1FFF7E8FF61686A6B20469047A2
:101120006FF00102811A02D0491E03D005E06FF072
:10113000010032BD4FF0FF3032BD0021616032BD91
:10114000DA6B1047034BE1E7024BF9E702487047BF
:101150000000000040000020080000200278C9B212
:101160008A421AB11CBF10F8012FF9E718BF0020FE
:101170007047010280B508B90FF21C0005490B68E1
:101180001BB122220021984701E000F08EFD2220B1
:1011900002BD0000B0010020636F6E73747261695C
:1011A0006E742068616E646C65723A2062616420BE
:1011B0006D6573736167650000F10103810704D0F9
:1011C00010F8011B89B18107FAD10268B2F101312F
:1011D000914311F0803F04BF50F8042FF6E710F858
:1011E000011B11B110F8011BFBE7C01A704700008A
:1011F000C9B2830706D0521E22D310F8013B994290
:10120000F7D11FE0083A13D302F1040241EA0121A9
:1012100041EA014150F8043B121F21BF4B40A3F1AA
:10122000013C2CEA030C1CF0803FF3D0C9B2001F34
:10123000083210F8013B521E28BF91EA030FF8D87C
:1012400018BF0120401E704780B5FFF74BFF006CB0
:1012500002BD000062B38B0708D0521E11F8013B9B
:1012600000F8013B00F024808B07F6D1830740F0A3
:10127000208000BF103A07D330B4B1E83810103ADC
:10128000A0E83810F9D230BC530724BFB1E80810E9
:10129000A0E8081044BF51F8043B40F8043BD207D3
:1012A00024BF31F8022B20F8022B44BF0B780370C7
:1012B0007047121F17D35B0009D151F8043B20F887
:1012C000023B1B0C121F20F8023BF6D20BE051F838
:1012D000043B00F8013B1B0A20F8023B1B0C121FC9
:1012E00000F8013BF3D238BF121D521E24BF11F883
:1012F000013B00F8013BF8D870470000B3BBD9B1FF
:10130000B2F5803F7DD2022A1ED98C46B1FBF2F1A4
:1013100002FB11C31B0443EA1043B3FBF2FC02FBC4
:101320001C3380B240EA0343B3FBF2F002FB1032FD
:1013300040EA0C4000237047022A05D98446B0FBDE
:10134000F2F002FB10C270474AB105D100F0010271
:1013500049085FEA3000704700220023704700F020
:10136000A7BC0B000200002100207047904271EBE7
:10137000030CF6D3B3F5803F2FD2F0B5B3FA83F761
:10138000B1FA81F4A7F10F0E3D1B5340CEF12006B8
:1013900002FA0EF2F3415340B5F10F0746D80F3C65
:1013A0002C444140C4F12006A040F1414140B1FB32
:1013B000F3F603FB1611A2FB0645001BA94102D25E
:1013C000761E8018594180EA010221FA0EF362FA72
:1013D0000EF200215A403046F0BD30B4B1FBF3FCB0
:1013E00003FB1C11A2FB0C45001BA94103D2ACF16D
:1013F000010C8018594130BC02460B466046002162
:101400007047B2F1807F65D3F0B5B2FA82F7B1FAD6
:1014100081F4C7F10F063D1B22FA06F307F1110E06
:10142000F24120355A40B5F10F07B8D94140C4F117
:101430002006A040F1414140B1FBF3FC03FB1C112D
:10144000A2FB0C45001BA94103D2BCF1010C801882
:1014500059410F2F12D30F3FC90341EA5041B1FB4D
:10146000F3F603FB1611A2FB0645D4EBC030A941ED
:1014700002D2761E8018594146EACC3C07B341405F
:10148000C7F12006B840F1414140B1FBF3F603FB40
:101490001611A2FB0645001BA94102D2761E801838
:1014A000594180EA010221FA0EF3C7F1200462FAE1
:1014B0000EF20CFA07F05A402CFA04F13043F0BD5A
:1014C00080EA010221FA0EF3002162FA0EF2604670
:1014D0005A40F0BD8C46B1FBF2F102FB11C31B0276
:1014E00043EA1063B3FBF2FC02FB1C331B024CEA21
:1014F000002043EA1063B3FBF2FC02FB1C331B0227
:101500004CEA002043EA1063B3FBF2FC02FB1C33FD
:101510001B024CEA002043EA1063B3FBF2FC02FB1F
:101520001C324CEA0020002370470000B0B581EA6D
:10153000030C0CF0004C40F2FF7515EA11541DBF6E
:1015400015EA1357AC42AF4239E0E41923EA455398
:1015500043F48013C90241F0004141EA505EC702E2
:101560001100A7FB020200284FF00000EEFB012053
:101570004FF00001E3FB072118BF42F001024018C1
:1015800000214941E3FB0E01A4F580640F0302D260
:1015900052004041494154F101046CDD470872F1A9
:1015A000004250F1000051EB0451A1F580115CBFE5
:1015B00041EA0C01B0BD4CEA05510020B0BD05EA7E
:1015C0001357AC4214BFAF4241E050EA410E1CBF7A
:1015D00052EA430E02E061460020B0BD24423C4482
:1015E0001BD15FEA070EF6D0090302BF01460020B7
:1015F000AEF1140EB1FA81F7AEEB070401FA07FE63
:101600000C37C7F1200100FA07F7C8404EEA000E78
:1016100023EA455343F48013A2E733F00043B3FABF
:1016200083F704BFB2FA82FE77440B3FE41BB7F1A5
:10163000200E2FBF02FA0EF3BB40C7F1200E22FA94
:101640000EFE38BF43EA0E03BA40641C82E750EA3C
:10165000410E14BF52EA430E6FF000014FF4001721
:1016600017EB430F8ABF194617EB410FB5E74CEA5A
:1016700005510020B0BDD4F10104B4F120070FDA08
:10168000C4F12007520828BF42F0010210FA07F502
:1016900001FA07F7E1BF2A43E0403843E1400FE099
:1016A000352C98DCC7F1200452EA400220FA07F2F8
:1016B00018BF42F0010231FA07F0A1400A430021AD
:1016C00072F1004250F1000051EB0C01B0BD00007E
:1016D00010B5144600F002F8226010BDC1F30A53A1
:1016E00043B14A0012F5001F28D2A3F2FE32A1EB4B
:1016F0000251704750EA410C20D001F0004C31EA11
:101700000C01B1FA81F204BFB0FA80F3D2180B3A9F
:10171000B2F120032CBF00FA03F1914041EA0C0121
:101720003EBFC2F1200C20FA0CF319439040524204
:1017300040F2FD33D21A01EB03517047002270478B
:101740004FF4001C1CEB410F94BF1CEB430F09E04E
:1017500041EA030C50EA4C0C52EA0C0C03D29942B9
:1017600008BF9042704714BF8B428242704700000E
:101770004FF4001C1CEB410F94BF1CEB430F09E01E
:1017800041EA030C50EA4C0C52EA0C0C03D28B4297
:1017900008BF8242704714BF9942904270470000D0
:1017A000124254D440F2FF7C1CEA11530FD063451F
:1017B00031D09B1863453CBF01EB0251704701F0EB
:1017C000004141EA0C510020AFF30080704750EA1D
:1017D000410320D001F0004C91EA0C011CD0B1FA79
:1017E00081F30B3B9A420DD9D21A994051EA0C0170
:1017F000C3F1200C20FA0CFC61449840531C40F2C9
:10180000FF7CD7E7914041EA0C01C2F1200C20FA9D
:101810000CF3194390407047B0FA80F31533202B36
:10182000E0D3202AEED3203A203B9A4209D9D21A9B
:1018300000FA03F141EA0C010020531C40F2FF7C46
:10184000B8E700FA02F141EA0C0100207047524269
:1018500040F2FF7C1CEA11530DD06345DBD0B2EBA4
:10186000030C3CBFA1EB025170470CF1010221EACD
:10187000035141F4801150EA410CCCD001F0004CEE
:10188000352A27DC30B481EA0C01B2F1200309DAF1
:10189000C2F12003044601FA03F5D0402843D140A9
:1018A0009C400CE0C3F12002450020FA03F418BF6D
:1018B00044F0010421FA03F091400C43002174F13B
:1018C000004550F1000051EB0C01244230BC7FF484
:1018D0007BAF70476146002076E70000C1F30A53F2
:1018E00040F2FE329B1A14DDD3F120034FEAE1727D
:1018F00008DDC90241EA505141F00040D84080184B
:101900005040704703F2E13010B1D24382F0004002
:101910007047002070470000C11768B14840401A66
:10192000B0FA80F29040D21CC907C2F5846241EA45
:10193000025202EBD02140057047000070B44FF016
:10194000004591EA030F40F1B5816B40841A71EBB9
:10195000030603D2001BB141121973414FF4001C5E
:101960001CEB410F34BF7CEB430442E00C0DA4EBB5
:101970001356352E4FDC45EAC323DB0A45EAC12165
:10198000C912B6F120050DDD63FA05F6EB4086EAD3
:101990000305124218BF45F00105C01851F10001BE
:1019A0000CD213E062FA06F5F2405540F3415A407A
:1019B000B340F3405A408018594107D349085FEAC1
:1019C00030005FEA350528BF45F0010501F58011BB
:1019D000420875F1004250F1000041EB04514E0005
:1019E00016F5001F70BC38BF70470020090D0905AF
:1019F00070471CEB410F10D252EA43060BD0BCEBF0
:101A0000410F05D80C0DAB43661E342EB6DD02E047
:101A1000AB438018594170BC704770BC70470000E0
:101A2000F0B540F2FF7581EA030C0CF0004C15EAAA
:101A300011541DBF15EA1357AC42AF42E5E0BC415B
:101A4000C1F31301C3F31303801A994143F48013C4
:101A500004D2641E4000494180185941C90241EA3C
:101A60005051B1FBF3F603FB1611A2FB0675D7EB41
:101A7000C020A94102D2761E80185941C90241EA0C
:101A80005051B1FBF3FE03FB1E11A2FB0E75D7EB09
:101A9000C020A94103D2AEF1010E8018594189023C
:101AA00041EA9051760546EA8E2EB1FBF3F603FB30
:101AB0001611A2FB0675D7EB8020A94102D2761E33
:101AC00080185941C90241EA50514EEA060EB1FB55
:101AD000F3F603FB1611A2FB0675D7EBC020A94154
:101AE00002D2761E80185941C90241EA5051B1FB19
:101AF000F3F703FB1711A2FB0735D3EBC020A94175
:101B000067F100070CBF004247F0010766F3D527D5
:101B10004FEA1E31B80814F5806412DDBD0775F177
:101B2000004250EB0E5051EB045111F5801F5CBF89
:101B300041EA0C01F0BD4CF07F6141F0E041002032
:101B4000F0BDBD076D0840EA0E5041F48011D4F19C
:101B50000104B4F120060ADAC4F120060200E040D4
:101B600001FA06F3E1401843B24015430EE0342C6D
:101B700013DCC6F1200445EA40056D0820FA06F2A0
:101B8000154321FA06F0A1400D43002175F10042F2
:101B900050F1000051EB0C01F0BD00205FEA0C0198
:101BA000F0BDCFB992185B41B3FA83F704BFB2FA24
:101BB00082F6BF190B3FB7F120062FBF02FA06F3DA
:101BC000BB40C7F1200622FA06F638BF3343BA40BD
:101BD0001CB1E419641E33E77F4231F00041B1FAD1
:101BE00081F404BFB0FA80F6A4190B3CB4F12006CE
:101BF0002FBF00FA06F1A140C4F1200620FA06F634
:101C000038BF3143A0403C1B1AE7AC421ABF05EA7B
:101C10001357AF4212E050EA41061CBF52EA430696
:101C2000BFE750EA4107304661461CBF41EA055113
:101C3000F0BD52EA430C08BFC143F0BD00204FF491
:101C4000001616EB410F98BF16EB430F08BF16EBBB
:101C5000410F24BFC14305E016EB430F0CBF6146A3
:101C60004CEA0551F0BD0000400D491840EA8120C2
:101C70000CD2490DA1F58061491C40F0004005DB04
:101C8000D1F11F0154BFC840C017704700207047F2
:101C9000014648B1B0FA80F18840C91CC1F58461A1
:101CA000090501EBD02140057047012000F0B6B8CE
:101CB00070470000841A71EB030604D26E40001BCB
:101CC000B141121973414FF4001C1CEB410F34BF9A
:101CD0007CEB430682E00C0DA4EB1356362E7BDC26
:101CE000012E45EAC32341DC43EA525312BFD2021C
:101CF00092025B08240545EAC12141EA5051D2EB2A
:101D0000C020994125D407D1B0FA80F610FA06F127
:101D100062D00020203608E0B1FA81F6B140C6F169
:101D2000200220FA02F21143B0404FEAF474B4EBFF
:101D3000465434F001064FEA74040AD8D6F500166A
:101D4000760D04F00044F04061FA06F25040F14094
:101D50004840C00A40EA415021F0004128BF5FEAF4
:101D6000500550F1000044EBD12135E0DB0A45EA93
:101D7000C121C90AB6F120050EDD42EA0242120C69
:101D8000C5F1200603FA06F6EB4042EA06056D426D
:101D9000984161F100010DE062FA06F5F24055400C
:101DA00063FA06FC82EA0C02F3405A406D4290410D
:101DB00061EB030111F4801F05D1641E620502D09E
:101DC0006D004041494121F48011430875F1004301
:101DD00050F1000041EB045170BC70471CEB410F07
:101DE00015D223F0004352EA43060BD04FEA4C0CC5
:101DF000BCEB410F04D80C0D661E342EB7DDEBE7AB
:101E0000801A994150EA410608BF0021E4E708BF63
:101E10001CEB430F28BF6FF00001DDE780B5AFF387
:101E20000080024A11001820ABBEFBE7260002002A
:101E300010B50400002C01D1012014E094F83D00FD
:101E4000002805D1002084F83C00200000F000FCB0
:101E5000022084F83D00211D206800F01CFA0120BA
:101E600084F83D00002010BD0168C96851F00101EF
:101E70000268D1600168096851F0010100680160E1
:101E80000020704710B50400002C01D1012014E09F
:101E900094F83D00002805D1002084F83C00200083
:101EA00000F002FC022084F83D00211D206800F0B3
:101EB000F2F9012084F83D00002010BD10B50400A7
:101EC0000122206800F04BFB2068DFF838108842C0
:101ED00004D02068DFF83010884201D1012000E0F2
:101EE0000020C0B2002805D02068406C50F40040AB
:101EF000216848642068006850F00100216808608B
:101F0000002010BD002C01400034014010B5040039
:101F10002068006980071AD52068C068800716D538
:101F20007FF0020021680861012020772068806925
:101F300010F0030F03D0200000F0B7FB05E02000F5
:101F400000F0B4FB200000F0B2FB002020772068F6
:101F5000006940071AD52068C068400716D57FF091
:101F6000040021680861022020772068806910F44D
:101F7000407F03D0200000F098FB05E0200000F037
:101F800095FB200000F093FB00202077206800697B
:101F900000071AD52068C068000716D57FF0080032
:101FA00021680861042020772068C06910F0030FC1
:101FB00003D0200000F079FB05E0200000F076FB64
:101FC000200000F074FB0020207720680069C00624
:101FD0001AD52068C068C00616D57FF010002168A9
:101FE0000861082020772068C06910F4407F03D082
:101FF000200000F05AFB05E0200000F057FB200015
:1020000000F055FB0020207720680069C0070AD542
:102010002068C068C00706D57FF00100216808610C
:10202000200000F058FB2068006900060AD52068EF
:10203000C068000606D57FF0800021680861200096
:1020400000F062FB2068006940060AD52068C0687D
:10205000400606D57FF0400021680861200000F0AE
:1020600054FB2068006980060AD52068C068800695
:1020700006D57FF0200021680861200000F046FBB3
:1020800010BD38B504000D0094F83C00012801D1C2
:10209000022073E0012084F83C00022084F83D0017
:1020A000002A06D0042A1BD0082A31D00C2A46D098
:1020B0005DE02900206800F035F92068806950F063
:1020C0000800216888612068806930F00400216878
:1020D000886120688169286901432068816146E040
:1020E0002900206800F054F92068806950F40060ED
:1020F000216888612068806930F480602168886187
:1021000020688069296950EA0120216888612EE0F1
:102110002900206800F077F92068C06950F00800B5
:102120002168C8612068C06930F004002168C86176
:102130002068C169286901432068C16117E029004E
:10214000206800F09AF92068C06950F400602168A6
:10215000C8612068C06930F480602168C861206867
:10216000C069296950EA01202168C861FFE70120A0
:1021700084F83D00002084F83C00002032BD10B5FA
:102180000400002094F83C00012801D1022081E0E5
:10219000012084F83C00022084F83D00206880681B
:1021A00030F0770030F47F402268906008680028A3
:1021B00055D0102858D020285BD030285ED0402839
:1021C00043D050282DD0602835D070280DD0B0F5E0
:1021D000805F03D0B0F5005F16D054E020688068BF
:1021E000C008C000216888604DE0CB684A688968F3
:1021F000206800F0A8F92068806830F0770050F07F
:102200007700216888603EE0CB684A68896820686A
:1022100000F099F92068806850F480402168886057
:1022200031E0CA684968206800F05AF950212068F6
:1022300000F07FF927E0CA684968206800F064F977
:102240006021206800F075F91DE0CA6849682068BF
:1022500000F046F94021206800F06BF913E00021FE
:10226000206800F066F90EE01021206800F061F9A6
:1022700009E02021206800F05CF904E030212068AA
:1022800000F057F9FFE7012084F83D00002084F8B2
:102290003C00002010BD00220368DFF8302290428D
:1022A00012D0DFF82C2290420ED0B0F1804F0BD02C
:1022B000DFF82022904207D0DFF81C22904203D0A2
:1022C000DFF81822904203D133F070034A681343B9
:1022D0007E4A90420ED07E4A90420BD0B0F1804FA1
:1022E00008D07C4A904205D07B4A904202D07B4A7B
:1022F000904203D133F44073CA68134333F0800330
:102300004A69134303608A68C2620A6882626F4A3C
:10231000904202D06E4A904201D1096901630121C5
:102320004161704730B4002200220022026A520844
:1023300052000262036A4568846934F07004A4089C
:10234000A4000A68144333F002038A6813435F4A07
:10235000904202D05E4A904205D133F00803CA6829
:10236000134333F00403594A904202D0584A904232
:1023700007D135F4807535F400754A6915438A69CB
:1023800015434560846149684163036230BC70470E
:1023900030B4002200220022026A32F010020262EF
:1023A000026A4468836933F4E04333F440730D6890
:1023B00053EA052332F020028D6852EA0512434D9C
:1023C000A84202D0424DA84206D132F08002CD6828
:1023D00052EA051232F040023C4DA84202D03C4D78
:1023E000A84209D134F4806434F400644D6954EA9D
:1023F00085048D6954EA850444608361496881637A
:10240000026230BC704730B4002200220022026A0F
:1024100032F480720262036A4568C46934F0700461
:10242000A408A4000A68144333F400738A6853EACA
:102430000223264A904202D0254A904206D133F424
:102440000063CA6853EA022333F480631F4A904250
:1024500002D01F4A904209D135F4805535F4005519
:102460004A6955EA02158A6955EA02154560C46150
:102470004968C163036230BC704730B40022002257
:102480000022026A32F480520262036A4468C2691E
:1024900032F4E04232F440720D6852EA052233F41D
:1024A00000538D6853EA0533084DA84202D0084D09
:1024B000A84204D134F480444D6954EA8514446040
:1024C000C26149680164036230BC7047002C01405E
:1024D000003401400004004000080040000C0040AF
:1024E00010B400230023046A036A5B085B000362E4
:1024F000836933F0F00353EA021334F00A042143F2
:102500008361016210BC704710B400230023036A8A
:1025100033F0100303628369046A33F4704353EAAF
:10252000023334F0A00454EA01148361046210BC45
:1025300070470022826832F0700289B251F00701C0
:1025400011438160704710B40024846834F47F44E0
:10255000114351EA03212143816010BC704710B43C
:10256000002301238B40046A34EA03030362036AF5
:1025700012FA01F11943016210BC704700B58DB029
:102580005FF08040444908601F20434948600020B4
:102590004149886040F2E7303F49C86000203E4929
:1025A000086100203C4988613B48FFF741FC002856
:1025B00003D04021394800F07FF94FF48050099052
:1025C00009A93548FFF7DBFD002803D04621334831
:1025D00000F072F93048FFF755FC002803D04B217A
:1025E0002E4800F069F90020009000200190694613
:1025F000294800F063F9002803D05221274800F051
:102600005BF9602002904FF4FA7003900020049070
:1026100000200690002202A91F48FFF732FD002883
:1026200003D05B211D4800F047F94FF496700390EA
:10263000042202A91848FFF724FD002803D06121D5
:10264000164800F039F9144800F015F80DB000BD37
:1026500081B00068B0F1804F0BD11148006850F094
:1026600001000F4908600E48006810F0010000905A
:10267000009801B07047F8B50068B0F1804F09D1FB
:102680000320009002200190022003906946054833
:1026900000F042F905B000BD24010020B040000860
:1026A0001C10024000080140704770477047704797
:1026B0007047FEE7FEE7FEE7FEE7704770477047AA
:1026C00080B500F059FA00F007FB01BD80B50B485A
:1026D000FFF71CFC01BD80B5084988420DD10848B0
:1026E0000078401C0649087005480078322804D15B
:1026F0004FF40051034800F016FA01BD24010020F8
:10270000B60100200010014070477047704700007C
:1027100001B54FF6FF7301226946564800F01DFBD4
:10272000009802BD1FB56846534991E81C0080E837
:102730001C0000F081FC00F058F800F091FC00F063
:10274000F3FCFFF71BFF00F0ADF84C48FFF78CFBE4
:1027500000214A48FFF7B2FB04214848FFF7AEFBCF
:102760000122C121802000F0ABFD454800F034FD7E
:102770000222C121802000F0A3FD414800F02CFD81
:102780000122C121802000F09BFD3E480078642892
:10279000FBD100203B490870012000F0FBFD3A49C5
:1027A00008603948006800F02DFE02000B00374831
:1027B00000F04CFE022000F0EDFD35490860344881
:1027C000006800F01FFE02000B00324800F03EFEE1
:1027D0000121072000F00AFD2F490870022107207F
:1027E00000F004FD2D490870CFE700B58FB001203F
:1027F00005905FF48030069000200790012009903A
:1028000002200C905FF480300D905FF400200E9059
:1028100005A800F02FFE002803D0AF21204800F0CB
:102820004BF80F20009002200190002002904FF4FE
:1028300080600390002004900121684601F042F876
:10284000002803D0BD21164800F036F801F02FF91A
:102850004FF47A71B0FBF1F000F019FA042000F0A7
:102860001AFA002200215FF0FF3000F0FAF90FB0F1
:1028700000BD000064010020744200082401002013
:10288000FFFF0100B6010020A401002080420008E3
:10289000A801002098420008B4010020B5010020E2
:1028A0007040000880B5002200211C2000F0D9F9FA
:1028B0001C2000F0E7F901BDFEE7000090F83C2085
:1028C000012A01D1022024E0012280F83C200222CA
:1028D00080F83D200268526832F0700203685A6046
:1028E000026853680A68134302685360026892687A
:1028F00032F0800203689A600268926849680A436D
:1029000001688A60012180F83D10002180F83C10A8
:102910000020704700000000F8B4020000200020F2
:1029200000200025002000231AE0DFF804020068E0
:1029300030EA0404DFF8F801046010E0DFF8F40185
:102940000068A043DFF8EC61306048688002ECD595
:10295000DFF8DC0100680443DFF8D40104605B1C8D
:10296000102B80F0CB8001269E400C683440B4428E
:10297000F5D1486800282DD0012820D0022823D086
:10298000032835D011281CD0122820D0DFF8A871D8
:10299000B8421FD0DFF8A471B8421BD0DFF8A07195
:1029A000B84217D0DFF89C71B84213D0DFF89871A5
:1029B000B8420FD0DFF89471B8420BD01AE0CD685E
:1029C00018E0CD682D1D15E0CD68083512E0CD6802
:1029D0000C350FE08868002801D1042507E08868DD
:1029E000012802D10825166101E00825566101E0A1
:1029F0000025FFE7B4F5807F01D2100000E0101D34
:102A0000B4F5807F01D29E0002E0B3F10806B60063
:102A100007685FF00F0C1CFA06FC37EA0C0715FA82
:102A200006F63E4306604868C00098D548480068EE
:102A300050F00100464E30604548006810F001003B
:102A40000090009843481E00B60850F826600F27F3
:102A500013F00300C0B280008740BE433E4882426C
:102A600001D1002719E03D48824201D1012714E03D
:102A70003B48824201D102270FE03A48824201D10D
:102A800003270AE03848824201D1042705E037488D
:102A9000824201D1052700E0062713F00300C0B2EF
:102AA000800087403E432B481F00BF0840F8276046
:102AB0004868C00305D52E48006820432C4E30607E
:102AC00004E02B480068A043294E3060486880032A
:102AD00005D5284800682043264E306004E025488C
:102AE0000068A043234E30604868C0027FF526AFDF
:102AF0001048006820430F4E306026E7F1BC704755
:102B0000806889B2084201D0012000E00020C0B2F4
:102B10007047D2B2002A02D089B2016102E089B2C4
:102B2000090401617047C26889B25140C1607047B1
:102B30000C040140080401400000111000001210B4
:102B4000000021100000221000003110000032109F
:102B5000181002400800014000080140000C01402C
:102B6000001001400014014000180140001C014009
:102B70000004014004040140034801680348007850
:102B80004118014801607047AC010020D0000020CE
:102B900010F0070048490A684FF6FF010A4047490C
:102BA00051EA00210A4344480260704742480068E5
:102BB000C0F302207047012210F01F018A404049F3
:102BC00040B2400941F820207047020052B2002A6A
:102BD00008D509013B4A40B210F00F00104400F83C
:102BE000041C03E00901384A40B21154704710B484
:102BF00010F00700D0F10703052B01D3042301E0F7
:102C0000D0F10703041D072C01D2002000E0C01EF4
:102C1000012414FA03F35B1E19408140012313FAC7
:102C200000F0401E1040084310BC704780B5411EA4
:102C3000B1F1807F01D301200EE0401E23490860DE
:102C40000F215FF0FF30FFF7C0FF00202049086030
:102C5000072020490860002002BD80B5FFF798FFDB
:102C600001BD70B504000D0016000020FFF79EFFA7
:102C700032002900FFF7BBFF0100200040B2FFF740
:102C8000A4FF70BD80B540B2FFF795FF01BD80B5D0
:102C9000FFF7CCFF02BD042806D10E48006850F0B3
:102CA00004000C49086005E00A48006830F00400A0
:102CB00008490860704700000CED00E00000FA05CC
:102CC00000E100E018ED00E000E400E014E000E0C6
:102CD00018E000E010E000E080B500F001F801BD70
:102CE0007047000010B50400002C01D1012033E032
:102CF000A0690028FFD194F83900002805D10020F0
:102D000084F83800200000F033FA242084F83900D9
:102D10002068C06830F400502168C860200000F0CE
:102D2000C0F82068006930F490402168086120688C
:102D3000406930F02A00216848612068C06850F47A
:102D400000502168C8600020E063202084F839002A
:102D5000202084F83A00002010BD2DE9FC41050038
:102D60000C0017001E00002095F8390020285ED1C5
:102D7000002C03D0380080B2002801D1012057E098
:102D800095F83800012801D1022051E0012085F892
:102D900038000020E863212085F8390000F0D6FED5
:102DA0008046AF84EF8403E0207829684860641C83
:102DB000E88C002828D0E88C401EE884A868B0F58C
:102DC000805F16D10096434600228021280000F043
:102DD00031F8002801D003202AE02088C005C00D6A
:102DE000296848602869002801D1A41CE0E7641C18
:102DF000DEE70096434600228021280000F01AF802
:102E00000028D1D0032013E0009643460022402141
:102E1000280000F00FF8002801D0032008E020204F
:102E200085F83900002085F83800002000E00220F5
:102E3000BDE8F6812DE9F04105000E0090461F0027
:102E4000069C286800683040B04201D1012000E0B3
:102E500000204146C9B2884220D114F1010FF0D0C0
:102E6000002C04D000F072FEC01B8442E9D2286816
:102E7000C06830F4D0702968C8602868406940088C
:102E8000400029684861202085F83900202085F815
:102E90003A00002085F83800032000E00020BDE85B
:102EA000F0812DE9F041040000212068026932F42C
:102EB0004052E068024320680261A2682069024330
:102EC0006069024311432068C268594802401143B7
:102ED0002068C1602068416931F44071A0690143F4
:102EE000206841612068534988424FD100F0EDFDD0
:102EF000804600F0EAFD070000F0E7FD060000F064
:102F0000E4FD050000F0E1FD192101FB08F861680E
:102F10008900B8FBF1F16422B1FBF2F219214F43B1
:102F200061688900B7FBF1F319214E43616889009C
:102F3000B6FBF1F16426B1FBF6F6642101FB163312
:102F4000190132316423B1FBF3F313F0F00313EBF7
:102F5000021319214D4361688900B5FBF1F2192173
:102F6000484361688900B0FBF1F06421B0FBF1F1E6
:102F7000642000FB1122100132306421B0FBF1F01B
:102F800010F00F00C318206883604EE000F092FD3F
:102F9000804600F08FFD070000F08CFD060000F079
:102FA00089FD050000F086FD192101FB08F8616824
:102FB0008900B8FBF1F16422B1FBF2F219214F4311
:102FC00061688900B7FBF1F319214E4361688900FC
:102FD000B6FBF1F16426B1FBF6F6642101FB163372
:102FE000190132316423B1FBF3F313F0F00313EB57
:102FF000021319214D4361688900B5FBF1F21921D3
:10300000484361688900B0FBF1F06421B0FBF1F145
:10301000642000FB1122100132306421B0FBF1F07A
:1030200010F00F00C31820688360BDE8F081000035
:10303000F3E9FFFF0038014080B50848006850F010
:103040001000064908600320FFF707FE002000F08B
:1030500083FD00F0A7FD002002BD0000002002401B
:1030600000B585B02E48006850F010002C4908606B
:103070002B48006810F0100004900498284800685D
:1030800050F02000264908602548006810F0200014
:10309000049004982248006850F004002049086019
:1030A0001F48006810F0040004900498012242F2C6
:1030B0002C011C48FFF72DFD002210211948FFF7B5
:1030C00028FD42F22C000090012001900020029087
:1030D0000320039069461348FFF71EFC012000906F
:1030E000002001900020029069460E48FFF714FC72
:1030F00002200090002001900120029069460948BA
:10310000FFF70AFC1020009001200190002002909F
:103110000220039069460348FFF7FEFB05B000BD9F
:10312000181002400010014080B52648264908606A
:103130005FF4E13024494860002023498860002082
:103140002149C8600020204908610C201E494861BF
:1031500000201D49886100201B49C8611A48FFF7FB
:10316000C1FD002803D042211848FFF7A5FB01BD8F
:1031700000B585B000681349884221D11448006821
:1031800050F48040124908601148006810F48040F3
:10319000009000984FF400700190022002900320EC
:1031A000049001A90B48FFF7B7FB4FF48060019032
:1031B000002002900020039001A90648FFF7ACFB15
:1031C00005B000BD0038014064010020F040000857
:1031D000181002400008014001B402E00098401EAF
:1031E000009000980028F9D101B0704770B5050033
:1031F00000240020C9B2012905D1002210217C48F9
:10320000FFF787FC04E0002220217948FFF781FCCA
:103210001F20FFF7E1FF00261EE000220421744872
:10322000FFF777FC0BE0012208217148FFF771FCE2
:103230002806F2D5012204216D48FFF76AFC1F2001
:10324000FFF7CAFF002208216948FFF762FC6D0002
:103250001F20FFF7C1FF761C3000C0B20828E2DB58
:1032600000201F20FFF7B8FF002518E001220821E9
:103270005F48FFF74EFC64001F20FFF7ADFF012100
:103280005B48FFF73DFC002800D0641C00220821A9
:103290005748FFF73EFC1F20FFF79EFF6D1C2800DC
:1032A000C0B20828E2DB012210215148FFF731FCAF
:1032B000012220214E48FFF72CFC2000C0B270BD37
:1032C00070B505000C000020D2B2012A05D1002201
:1032D00010214748FFF71DFC04E00022202144484C
:1032E000FFF717FC1F20FFF777FF00261EE00022E4
:1032F00004213F48FFF70DFC0BE0012208213C4868
:10330000FFF707FC2806F2D5012204213848FFF711
:1033100000FC1F20FFF760FF002208213448FFF760
:10332000F8FB6D001F20FFF757FF761C3000C0B27E
:103330000828E2DB00251EE0002204212C48FFF7CC
:10334000E8FB0BE0012208212948FFF7E2FB2006F9
:10335000F2D5012204212648FFF7DBFB1F20FFF7EF
:103360003BFF002208212248FFF7D3FB64001F2007
:10337000FFF732FF6D1C2800C0B20828E2DB0122F3
:1033800010211B48FFF7C5FB012220211848FFF739
:10339000C0FB70BD38B5040000202100C9B2012077
:1033A000FFF724FF05002100C9B20220FFF71EFF2E
:1033B00080214D4380B2022190FBF1F0ADB280B28A
:1033C0004519280000F044FC0A4900F053FC5FF066
:1033D0008E4100F0BBFC084900F036FD00F012F809
:1033E000064A074BFEF71CFB00F0A0FD32BD0000B3
:1033F000001001400000D7430000C8C269520ABA59
:10340000BDA4D83FC0F3C75181B1FF2906D0C11078
:10341000400721F0E04101F16051704741020CBFCB
:1034200040F4E0016FF000410020704700F00041DF
:1034300000020AD0B0FA80FC00FA0CF001F16051F1
:10344000A1EB0C5101EBD021400570470EB4C0B583
:10345000024603A800210190009101AB012104481C
:1034600078440C30FCF764FE06BC5DF810FB00BF2E
:10347000B30D00007CB5040000202078C00740F1A7
:103480008480DFF88806006810F00C0004280BD058
:10349000DFF87806006810F00C0008280ED1DFF87D
:1034A0006C060068C00309D5DFF85C06006880037D
:1034B0006BD56068002868D1012002E26068B0F531
:1034C000803F08D1DFF84006006850F48030DFF814
:1034D0003816086038E06068002810D1DFF8280648
:1034E000006830F48030DFF820160860DFF8180636
:1034F000006830F48020DFF81016086024E060686F
:10350000B0F5A02F10D1DFF80006006850F480203D
:10351000DFF8F4150860DFF8F005006850F480303B
:10352000DFF8E41508600FE0DFF8DC05006830F430
:103530008030DFF8D4150860DFF8CC05006830F47F
:103540008020DFF8C4150860606800280ED000F005
:10355000FDFA0500DFF8B0050068800315D400F01F
:10356000F5FA401B6528F5D30320AAE100F0EEFA36
:103570000500DFF894050068800306D500F0E6FA40
:10358000401B6528F5D303209BE12078800726D5D2
:10359000DFF87805006810F00C0F0BD0DFF86C0531
:1035A000006810F00C00082833D1DFF860050068CF
:1035B000C0032ED4DFF850050068800704D52069C9
:1035C000012801D001207CE1DFF83C05006830F0E3
:1035D000F800616950EAC100DFF82C150860207816
:1035E00000074ED5A069002800F081800120DFF897
:1035F0002C15086000F0AAFA0500DFF81C05006829
:1036000080073BD400F0A2FA401B0328F5D3032027
:1036100057E1206900281ED00120DFF8041508605A
:1036200000F094FA0500DFF8E0040068800706D493
:1036300000F08CFA401B0328F5D3032041E1DFF8AA
:10364000C804006830F0F800616950EAC100DFF892
:10365000B8140860C3E70020DFF8C414086000F065
:1036600075FA0500DFF8A00400688007B7D500F000
:103670006DFA401B0328F5D3032022E1012000F05E
:103680002FFA2078400740F1B9800025DFF8940434
:103690000068C0000FD4DFF88C04006850F0805040
:1036A000DFF880140860DFF87C04006810F08050B8
:1036B000009000980125DFF870040068C00529D447
:1036C000DFF86404006850F48070DFF85C14086070
:1036D00000F03CFA0600DFF850040068C00519D479
:1036E00000F034FA801B6528F5D30320E9E00020C0
:1036F000DFF82814086000F029FA0500DFF8180444
:1037000000688007BDD500F021FA401B0328F5D3DF
:103710000320D6E0E068012808D1DFF81004006833
:1037200050F00100DFF80414086037E0E06800287A
:1037300010D1DFF8F803006840084000DFF8EC1310
:103740000860DFF8E803006830F00400DFF8DC13FD
:10375000086023E0E068052810D1DFF8D003006896
:1037600050F00400DFF8C4130860DFF8C0030068FD
:1037700050F00100DFF8B41308600FE0DFF8AC038D
:10378000006840084000DFF8A4130860DFF89C03DD
:10379000006830F00400DFF894130860E068002847
:1037A00010D000F0D3F90600DFF88003006880072E
:1037B00019D400F0CBF9801B41F289318842F3D350
:1037C00003207EE000F0C2F90600DFF86003006825
:1037D000800708D500F0BAF9801B41F28931884290
:1037E000F3D303206DE0EDB2012D07D1DFF83403F0
:1037F000006830F08050DFF82C130860E069002882
:103800005ED0DFF80803006810F00C00082855D0DF
:10381000E06902283FD10020DFF81413086000F0AF
:1038200095F90500DFF8E0020068800106D500F098
:103830008DF9401B0328F5D3032042E0206AB0F540
:10384000803F09D1DFF8C402016831F40031A0687B
:103850000143DFF8B8020160DFF8B002016831F41B
:103860007411206A0143606A0143DFF8A00201601D
:103870000120DFF8BC12086000F068F90400DFF8EE
:103880008802006880011BD400F060F9001B032847
:10389000F5D3032015E00020DFF89412086000F053
:1038A00055F90400DFF860020068800108D500F0D7
:1038B0004DF9001B0328F5D3032002E0012000E0AE
:1038C000002076BD70B504000D000020DFF8640212
:1038D000006810F00700A84211D2DFF85802006813
:1038E000C008C0002843DFF84C120860DFF844022B
:1038F000006810F00700A84201D00120A4E0207861
:10390000800709D5DFF80402016831F0F001A068F2
:103910000143DFF8F80101602078C00759D56068DD
:10392000012806D1DFF8E0010068800312D40120ED
:103930008AE06068022806D1DFF8CC0100688001C7
:1039400008D4012080E0DFF8C0010068800701D4BE
:10395000012079E0DFF8B401016889088900606816
:103960000143DFF8A801016000F0F0F8060060688C
:1039700001280ED16548006810F00C00042828D0FA
:1039800000F0E4F8801B41F289318842F2D3032031
:103990005AE0606802280ED15C48006810F00C0004
:1039A000082816D000F0D2F8801B41F289318842F5
:1039B000F2D3032048E05548006810F00C0F08D0FF
:1039C00000F0C4F8801B41F289318842F3D3032010
:1039D0003AE05848006810F0070085420ED255487A
:1039E0000068C008C0002843524908605148006878
:1039F00010F00700A84201D0012025E02078400700
:103A000007D54248016831F4E061E06801433F486E
:103A100001602078000708D53C48006830F4605009
:103A2000216950EAC1003949086000F00EF84249A6
:103A3000364A1268C2F30312895CC84035490860EF
:103A4000002000F089F8002070BD00B585B001A805
:103A50003A491022FDF70EFC39480088ADF8000005
:103A6000002000200020002000202848016811F0DC
:103A70000C00042802D0082802D015E0244814E0E5
:103A800001A8C1F38342805CC9030AD569461F4A75
:103A90001268C2F340428A5C1D494843B0FBF2F011
:103AA00001E02849484300E0194805B000BD194825
:103AB0000068704780B5FFF7FAFF2349134A126880
:103AC000C2F30222895CC84002BD80B5FFF7EFFF58
:103AD0001D490E4A1268C2F3C222895CC84002BD69
:103AE00081B00C490968C9084FF47A72B1FBF2F150
:103AF0004843009000BF0098411E00910028F9D172
:103B000001B07047000000000010024004100240A5
:103B100000127A0004000020241002408004424277
:103B2000000042421C100240007000402010024081
:103B30006000424200200240544200084442000813
:103B40007211000800093D00A04200080148006809
:103B5000704700BFAC01002010B504004FF47A702C
:103B60000D490978B0FBF1F00C490968B1FBF0F0A0
:103B7000FFF78DF8002801D001200CE0102C09D2AD
:103B8000002221005FF0FF30FFF76BF8044804606B
:103B9000002000E0012010BDD00000200400002023
:103BA0000000002080B52748006850F0010025493A
:103BB00008602448006810F0010000900098224836
:103BC000006850F08050204908601F48006810F0DD
:103BD0008050009000980320FFF73FF8002200215A
:103BE0007FF00B00FFF73DF8002200217FF00A0074
:103BF000FFF737F8002200217FF00900FFF731F8C6
:103C0000002200217FF00400FFF72BF800220021A2
:103C10007FF00300FFF725F8002200217FF001006C
:103C2000FFF71FF8002200215FF0FF30FFF719F8BF
:103C30000648006830F0E06050F00070034908600A
:103C400001BD00BF181002401C10024004000140DA
:103C5000C2175040801AB0FA80F10AD08840D1F1E2
:103C60009D01D20742EAC151020672F1004241EBC6
:103C700010207047FF2212EAD05C1DBF12EAD15318
:103C8000944593422BE09C44D30780EA01021A40FA
:103C900043EA002043EA0121A1FB0030C04238BFC3
:103CA00040007CF17F010BDBFE294ADA5B0842EA27
:103CB000C15153EA006373F1004C51EB102070477F
:103CC000D1F1080CDCF120012FDB5B0810FA01F1C7
:103CD0000B4320FA0CF073F10041504170479445BA
:103CE0001CBF02EAD153934280EA010202F0004273
:103CF0001DD0400019D0490017D05BB9634514D0DE
:103D00000902B1FA81F39940BCEB030CC00140F009
:103D10000040C1E70002B0FA80FC10FA0CF0B3EBEF
:103D20000C0CC90141F00041B6E71000704740009B
:103D30000AD0490008D010F1807F94BF11F1807F34
:103D400002E042F0FF407047D043704710B5FF23B8
:103D500013EAD0541DBF13EAD1529C429A4239E073
:103D6000A41ADA0780EA0103134042EA012142EA79
:103D70000020421A3CBF641E01EB4202090AB2FB5A
:103D8000F1FE01FB1E221202B2FBF1F001FB102238
:103D90006EF30F201202B2FBF1FE4EEA00207F34D8
:103DA00006DDFE2C24DA53EA500050EBC45010BD5F
:103DB000D4F1020401FB1E2240F08071192C1DDC9D
:103DC00021FA04F0C4F12004A140114371F1004232
:103DD000584110BD9C421ABF03EAD1529A420FE0EB
:103DE00080EA010E0EF00043400004D0490016D1D5
:103DF00043F0FF4010BD490008BFD343180010BD79
:103E00009C4205D1D21AF7D001F00041484010BDC4
:103E10004A0212BF0846484000F0004010BD4AB9AF
:103E20000902B1FA81F2914044B1A418C00140F0F6
:103E300000409EE7C90141F0004152420002B0FA41
:103E400080F4A040141B94E790EA010F40F1A28097
:103E500081F00041431A4FF000423EBF5340C01A68
:103E6000C91800BFD3095FEAD05C13EB400F34BF21
:103E7000B3EB410F40E07CEBD1530CD342EA01217C
:103E800022D8D1EB402009D3400A28BF5FEA500175
:103E900040EBCC507047401A15D04002B0FA80F287
:103EA000521C9040400A4FEA3C23B3EB026384BFAC
:103EB00000EB730007E040F400001A16DB07C2F1C4
:103EC0000102D04018437047182BFCDC31FA03F292
:103ED00002FA03F3591A38BF42F00102D2EB402034
:103EE0003CBF4000ACF1010C5FEACC5CC20572F152
:103EF00000414CEB5020704713EB400F0FD2C942EA
:103F000009D0ACEBD153022B03DB4902172BDDDDCB
:103F100070479143401AC042D5D10020704713EB3F
:103F2000410FD0D36FF000007047000001F0004255
:103F30008B1AA3F16051B1F5801F0ADBB1F17F6FDD
:103F40001FD242EAC102C10071F1004142EB507040
:103F500070470B15C3F10903212B10D2890241EAE6
:103F6000905180020128494141F0004121FA03F0BB
:103F7000C3F12003994071F1004150417047100096
:103F800070476FF0000013EB103F5CBF000E42EA79
:103F9000C0507047421A3CBF801A89184FF0004C3D
:103FA000C0F3C752FF2A24D0C1F3C75313B3D21AA8
:103FB000D2F1190327DD4CEA01214CFA03F321EA7F
:103FC0000303D140C20D4CEA0020401834BF20EA60
:103FD0000C004CEA5000D20553EA006373EB0C0C62
:103FE00052EB1020420012F1807F38BF7047C00DA5
:103FF000C0057047490212BF9A4200EB5120F8E712
:10400000D2F11703D9D570471348006850F001006A
:104010001149086011480168114801400F480160CA
:104020000D4801680F4801400B4801600A480068CC
:1040300030F48020084908600848006830F4FE0029
:10404000064908605FF41F00074908605FF00060E0
:10405000064908607047000000100240041002404A
:104060000000FFF8FFFFF6FE0810024008ED00E038
:10407000433A5C55736572735C475C4465736B745B
:104080006F705C636F6465207265706F5C6633721D
:10409000635F7370695C68616C5F73777370695C90
:1040A0007370695C5372635C6D61696E2E630000AE
:1040B000433A5C55736572735C475C4465736B741B
:1040C0006F705C636F6465207265706F5C663372DD
:1040D000635F7370695C68616C5F73777370695C50
:1040E0007370695C5372635C74696D2E63000000C9
:1040F000433A5C55736572735C475C4465736B74DB
:104100006F705C636F6465207265706F5C6633729C
:10411000635F7370695C68616C5F73777370695C0F
:104120007370695C5372635C75736172742E6300A3
:1041300019E050F8042BD30744BFA9F101039A18E2
:10414000091F0023042942F8043BF9D25FEA817C6D
:10415000134604D54FF0000CA2F800C09B1CC90701
:1041600044BF0021197050F8041B0029E1D17047A9
:1041700030B5016884684218416802EB5103C907F1
:104180000BD54C4409E012F9011B12F8015B002920
:1041900004F8015B05D5491CF9D19A42F3D10C30E2
:1041A00030BD491EF1D5F8E710B5074979441831FB
:1041B000064C7C44163404E00A68081D1144884704
:1041C0000146A142F8D110BD080000002400000003
:1041D00061FFFFFFE4000000D400002000000000A9
:1041E00091FFFFFFB6010000000100000000002069
:1041F00000F00DF8002801D0FFF7D6FFAFF30080E4
:104200000020AFF30080FEF78DFA00F002F80120E5
:10421000704700F001B8000007463846FDF7FEFD84
:10422000FBE738B504460D46284600F005F8A842DD
:1042300018BF0024204632BD0149FEF769BA00BF0D
:104240008800002002030405060708090A0B0C0D6C
:104250000E0F101000000000000000000102030417
:10426000060708090148804701480047094000083F
:104270008D4200080001020304050607080900003A
:10428000252E33662020202000000000AFF30080A0
:10429000AFF30080FFF7ACFF252E33660A00000065
:1042A000000000000102030400002E004300FFF79D
:1042B000FEBFFFF7FEBFFFF7FEBFFFF7FEBFFFF732
:1042C000FEBFFFF7FEBFFFF7FEBFFFF7FEBFFFF722
:1042D000FEBFFFF7FEBFFFF7FEBFFFF7FEBFFFF712
:1042E000FEBFFFF7FEBFFFF7FEBFFFF7FEBFFFF702
:1042F000FEBFFFF7FEBFFFF7FEBFFFF7FEBFFFF7F2
:10430000FEBFFFF7FEBFFFF7FEBFFFF7FEBFFFF7E1
:10431000FEBFFFF7FEBFFFF7FEBFFFF7FEBFFFF7D1
:10432000FEBFFFF7FEBFFFF7FEBFFFF7FEBFFFF7C1
:10433000FEBFFFF7FEBFFFF7FEBFFFF7FEBFFFF7B1
:10434000FEBFFFF7FEBFFFF7FEBFFFF7FEBFFFF7A1
:10435000FEBFFFF7FEBFFFF7FEBFFFF7FEBFFFF791
:10436000FEBFFFF7FEBFFFF7FEBFFFF7FEBFFFF781
:10437000FEBFFFF7FEBFFFF7FEBFFFF7FEBFFFF771
:10438000FEBFFFF7FEBFFFF7FEBFFFF7FEBFFFF761
:10439000FEBFFFF7FEBFFFF7FEBF0010FC001EA22E
:1043A0004A04A8420008A8420008A8420008A842FF
:1043B0000008A8420008A8420008A8420008F8FF28
:1043C0000BAA420008A8420008A8420008FAFF060B
:1043D0000000AC42000801FD000308000020D800E6
:1043E00003D9100008FC0004C710000801F90013ED
:1043F00002040101D400002024010020D400002088
:10440000D4000020FC0003D4000020FC0007CC00F6
:0A4410000020B8000020E0000001C9
:040000050800428D20
:00000001FF
